:100000000C943D030C945A030C945A030C945A0319
:100010000C945A030C945A030C945A030C945A03EC
:100020000C945A030C945A030C94AD2F0C9480300A
:100030000C9475280C945A030C945A030C945A038C
:100040000C945A030C945A030C945A030C945A03BC
:100050000C945A030C940D290C945A030C945A03D3
:100060000C945A030C945A030C945A030C945A039C
:100070000C945A030C945A030C945A030C945A038C
:100080000C945A030C945A030C945A030C945A037C
:100090000C945A030C945A030C945A030C945A036C
:1000A0000C945A030C945A030C945A0314001A002B
:1000B0000800150017001C0018000C0012001300A7
:1000C00004001600070009000A000B000D000E00D6
:1000D0000F0033001D001B00060019000500110071
:1000E000100036003700380000000000E300E20096
:1000F0002C002C002C002C00000000000000000050
:100100000000070009000A000000000000000000D5
:1001100014001A000800150017001C0018000C003D
:100120001200130004001600070009000A000B006B
:100130000D000E000F0033001D001B00060019000B
:1001400005001100100036003700380000000000E4
:10015000E300E2002C002C002C002C00000000002A
:10016000000000000000070009000A000000000075
:100170000000000014001A000800150017001C0001
:1001800018000C00120013000400160007000900FC
:100190000A000B000D000E000F0033001D001B00B5
:1001A0000600190005001100100036003700380065
:1001B00000000000E300E2002C002C002C002C00CA
:1001C00000000000000000000000070009000A0015
:1001D000000000000000000014001A0008001500D4
:1001E00017001C0018000C00120013000400160079
:1001F000070009000A000B000D000E000F0033007D
:100200001D001B000600190005001100100036003B
:100210003700380000000000E300E2002C002C0052
:100220002C002C000000000000000000000007006F
:1002300009000A0000000000000000001E0F050079
:10024000047F3F1F643214643214783C1E1E140A6B
:10025000052223252628292A2C2D2F303233353606
:10026000383A3B3D3E4042434547494A4C4E505147
:10027000535557595A5C5E6062646668696B6D6F6E
:1002800071737577797B7D7F81838587898A8C8E71
:1002900090929496989A9C9E9FA1A3A5A7A8AAAC79
:1002A000AEAFB1B3B4B6B8B9BBBCBEBFC1C2C3C5B3
:1002B000C6C7C9CACBCCCDCED0D1D2D2D3D4D5D655
:1002C000D7D7D8D9D9DADADBDBDBDCDCDCDCDCDD88
:1002D000DDDDDDDCDCDCDCDCDBDBDBDADAD9D9D86C
:1002E000D7D7D6D5D4D3D2D2D1D0CECDCCCBCAC904
:1002F000C7C6C5C3C2C1BFBEBCBBB9B8B6B4B3B133
:10030000AFAEACAAA8A7A5A3A19F9E9C9A989694CD
:1003100092908E8C8A89878583817F7D7B797775A2
:1003200073716F6D6B6968666462605E5C5A595781
:10033000555351504E4C4A4947454342403E3D3B40
:100340003A3836353332302F2D2C2A2928262523CA
:1003500022FFAA7F554000010101010101010101B5
:100360000202020202020202020303030303030366
:100370000304040404040404050505050506060633
:100380000606070707070708080808090909090AF0
:100390000A0A0B0B0B0C0C0C0D0D0D0E0E0E0F0F95
:1003A0000F10101111111212131314141515161623
:1003B0001717181819191A1A1B1B1C1D1D1E1E1F92
:1003C0002020212222232424252626272829292AE1
:1003D0002B2C2D2D2E2F3031323233343536373809
:1003E000393A3B3C3D3E3F40414243444546474805
:1003F000494A4C4D4E4F50515354555658595A5BDB
:100400005D5E5F616264656668696B6C6D6F70727A
:10041000737577787A7B7D7E8082838587888A8CE6
:100420008E8F91939596989A9C9EA0A2A3A5A7A91A
:10043000ABADAFB1B3B5B7BABCBEC0C2C4C6C9CB11
:10044000CDCFD1D4D6D8DBDDDFE2E4E7E9EBEEF0C7
:10045000F3F5F8FAFDFF00000000000000002A2B71
:100460002800000000000000000000000000000064
:100470000029000000002C1E3420212224342627CD
:10048000252E362D3738271E1F20212223242526EE
:100490003333362E37381F0405060708090A0B0CBC
:1004A0000D0E0F101112131415161718191A1B1C04
:1004B0001D2F3130232D350405060708090A0B0CC2
:1004C0000D0E0F101112131415161718191A1B1CE4
:1004D0001D2F3130354C00000000000000000000EE
:1004E000000000000000000000000000000000000C
:1004F000000000000000000000007E0F00D4FFFF9D
:10050000FFC70000007814036F00720074006800D9
:1005100075006D0062003300390000000A037400AA
:1005200061006B00610000000403090409025B0024
:10053000030100A0FA0904000001030101000921E0
:10054000110100012244000705810308000109048C
:100550000100020300000009211101000122220014
:100560000705820320000107050303200001090499
:1005700002000103000000092111010001227B009B
:100580000705840320000112010002000000086B2F
:100590007439330001010200010660FF0961A10105
:1005A0000962150026FF0095207508810209631570
:1005B0000026FF00952075089102C005010902A1DF
:1005C0000185020901A10005091901290815002565
:1005D0000195087501810205010930093115812550
:1005E0007F95027508810609381581257F9501756B
:1005F000088106050C0A38021581257F95017508CA
:100600008106C0C005010980A101850319012AB72F
:1006100000150126B700950175108100C0050C0971
:1006200001A101850419012AA002150126A0029545
:100630000175108100C005010906A101050719E037
:1006400029E71500250195087501810295017508B6
:1006500081010507190029FF150026FF0095067581
:100660000881000508190129051500250195057562
:10067000019102950175039101C011241FBECFEFB6
:10068000DAE0DEBFCDBF11E0A0E0B1E0E6E5F9E6DB
:1006900002C005900D92A03FB107D9F723E0A0EF6B
:1006A000B1E001C01D92AD34B207E1F70E94AE1275
:1006B0000C9430340C9400008430B8F46530A8F405
:1006C0004A3098F4E42FF0E09AE0699FE00DF11DC4
:1006D000112492E3899FE00DF11D1124EE0FFF1FFD
:1006E000E455FF4F85919491089581E090E008953D
:1006F00081E008950E947803089581E008950E94A2
:10070000780308950E947F03089508950E94850349
:100710000895A6E0B0E0EFE8F3E00C94DC32498302
:100720005A839E833091F70189819A8131111AC0D1
:100730003E81332399F0222389F00E943609182F35
:10074000682F89819A810E94120969817A81812F9B
:100750000E944A102696E3E00C94F8320E94240985
:10076000182FF3CF0E94360969817A81F1CFFC01FD
:10077000262F4081518162817381848195810E94FD
:1007800089030895CF93DF93D82FC92F61E00E948A
:10079000B7036D2F7C2F0E947A03DF91CF910895CC
:1007A000CF93DF93D82FC92F60E00E94B7036D2F3E
:1007B0007C2F0E948603DF91CF91089581E00895F8
:1007C0000E94DE030895CF93C82F0E9406088C2F45
:1007D0000E94E0032FEF84E39CE021508040904092
:1007E000E1F700C00000CF91089581E00E94E3038B
:1007F0000E943129089580E00E94E3030E9442296B
:1008000008950F931F93CF93DF938C0161E00E94B3
:10081000B703EC01F801858181110E94B81CB80171
:10082000CE010E945625882309F449C0B801CE01A3
:100830000E948203882309F442C0B801CE010E94BD
:1008400062248823E1F1B801CE010E94571F88235A
:10085000B1F1B801CE010E942C1F882381F1B801AB
:10086000CE010E94D81C882351F1B801CE010E940C
:10087000A324882321F1F8018581882381F0CA35DA
:10088000FCE7DF0739F178F4C130ECE7DE07F9F077
:10089000C330FCE7DF07C9F0C115DC4771F0C801C0
:1008A0000E947D030DC0CB35ECE7DE07B1F0CC35FF
:1008B000DC47A9F70E94560DF2CF0E94F50380E0B5
:1008C000DF91CF911F910F9108950E94680D0E94B2
:1008D000FB03F5CF0E94600DE2CF0E94640DDFCFD5
:1008E0000E9451280E949D040E94121B0E945613D0
:1008F00008950E94A1040E940D1C0E94562808958C
:10090000089581E008950895CF93DF93D82F0E9432
:100910008104C82F882319F08D2F0E9483048C2F07
:10092000DF91CF9108950895CF93C82F0E9480043E
:100930008C2F0E948404CF91089580E00E9494043B
:1009400008950E9427270E9494040895CF930E943F
:100950002727C82F8091F2018C1779F0C093F201FC
:100960000E94E1286093F3017093F4018093F501F4
:100970009093F6018C2F0E949404CF910895ADE0DE
:10098000B0E0E5ECF4E00C94DD32488759876A87E3
:100990007B878C879D8791110E94930C1F8286E034
:1009A000FE013896DE01119601900D928A95E1F7CD
:1009B0008D8181110DC029813A814B815C816D81CE
:1009C0007E818F810E94D90B2D96E2E00C94F93242
:1009D000CE0101960E94C2038111EDCFF5CFFC013B
:1009E0008481813021F4808191810E945F09089582
:1009F000CF93DF93C82FD62F662381F00E94C520A6
:100A00008C2F90E09C01215D31092830310548F49C
:100A10006D2F0E94AC13DF91CF9108950E94232186
:100A2000EFCF0E949B21F7CFCF93C82F882399F057
:100A30008CEF8C0F813A88F48C2F0E94AE2788238C
:100A400029F08C2F0E94F3270E94040D8C2F0E9406
:100A5000EB270E94040DCF91089580E28C0F88301F
:100A600048F4C77081E001C0880FCA95EAF70E9478
:100A7000740CEFCF8BE58C0F833038F42C2F24527D
:100A8000330BC9010E944E27E6CFE8E5EC0FEB31AE
:100A900050F4F0E0EE0FFF1FEF5CFE4F808191817C
:100AA0000E947427D8CF83E38C0F8331A0F661E0D6
:100AB0008C2F0E94F804CFCF882381F19CEF980FF0
:100AC000913A28F40E94F3270E94040D089590E2C1
:100AD000980F983050F4877091E001C0990F8A9573
:100AE000EAF7892F0E947A0CEFCF9BE5980F93309D
:100AF00028F480E090E00E944E27089598E5980F32
:100B00009B3128F480E090E00E947427089593E3DD
:100B1000980F933118F460E00E94F80408951F9331
:100B2000CF93DF93182FEB010E941405209739F41F
:100B3000812F0E945C05DF91CF911F9108958FE96D
:100B40009FE00197F1F700C000002197EFCF60E030
:100B500070E0893311F460E570E00E948F0508951C
:100B6000882321F00E94740C0E94040D08958823AC
:100B700021F00E947A0C0E94040D0895A0E0B0E0DC
:100B8000E4ECF5E00C94D7326C01D62FC72FFC01B2
:100B90001581068102950F700E94690CE82E88234A
:100BA000F9F0E12E1123E1F08C2F807F803461F089
:100BB00080E28D0F8830F0F08C2F807E803221F41F
:100BC000D230C0F00023B1F08091FE0282FF12C04B
:100BD00082E00E94290D0E94690C91E0E82EE9262E
:100BE000EC2FE295EF70C03CB0F5F0E0EE5CFB4C12
:100BF0000C948F32E12CF4CF0C2F0F70C03110F019
:100C00000295007F112399F0002359F080E28D0FA7
:100C1000883010F0D11107C0802F0E94740C0E9400
:100C2000040D8D2F51C0802F0E94850CF8CF8D2F81
:100C30000E945C05002379F080E28D0F883010F06F
:100C4000D11104C0802F0E947A0C03C0802F0E9413
:100C50008B0C0E94040DEE2089F00E94650C80FD33
:100C60000DC0F60115820E945F0C0E948008C6012B
:100C70000E94CD070E945F0C0E948C08CDB7DEB7A2
:100C8000E8E00C94F332FC2FFF70FF2EC07FC032DF
:100C900019F0F29480EFF822DD2341F0D130D1F148
:100CA000112309F444C00023F1F0BBCF8091FE0270
:100CB00082FD15C0112359F0FF2029F08F2D0E94CD
:100CC000740C0E94040D80E00E941405C4CF80E0E3
:100CD0000E945C05FF2009F4BECF8F2DB4CF1123F5
:100CE00069F0011104C08F2D0E94B005B4CF01300E
:100CF00009F0B1CF8F2D0E94AB0CADCF0111ABCF5E
:100D00008F2D0E94B7058F2D0E94B70C8F2D0E944A
:100D10009A0CA1CF112321F0063008F09CCFE3CF2D
:100D2000053008F098CF8F2D0E94B70594CF00238F
:100D3000D1F3D93349F42FEF87EE93E0215080406F
:100D40009040E1F700C000008D2F0E945C0583CF2A
:100D50008C2F869586958370882369F0813009F001
:100D60007ACF8D2F9C2F9370111102C080E090E0FC
:100D70000E94742770CF8D2F9C2F9370111102C089
:100D800080E090E00E944E2766CF612F8D2F0E9459
:100D9000F80461CF8C2F8370811134C0111124C0ED
:100DA0004D2F429546954770440F440F8D2F8F70FD
:100DB000042E01C0880F0A94EAF7D071DD2341F0B8
:100DC0002FE030E001C0220F4A95EAF7D22FD095EC
:100DD000C695C695C3708D2BC23071F0C33079F0C3
:100DE000C13039F00E945C080E9427270E949404B9
:100DF00032CF0E945608F8CF0E946208F5CF0E94B9
:100E00005308F2CF112339F1C0FFEECF4D2F429599
:100E100046954770440F440F8D2F8F70042E01C0EC
:100E2000880F0A94EAF7D071DD2341F02FE030E01B
:100E300001C0220F4A95EAF7D22FD095C695C695E4
:100E4000C3708D2BC23069F0C33071F0C13031F006
:100E50000E94AE08C9CF823038F2D8CF0E94A808CD
:100E6000C3CF0E94B408C0CF0E946E08BDCFCF7020
:100E7000112339F08C2F0E9480088D2F0E94B0051D
:100E8000B3CF8D2F0E94B7058C2F0E948C08ACCF5A
:100E9000D23F31F170F4D03FB9F0D13FB1F111231D
:100EA00009F451C0002309F44BC08D2F0E94140592
:100EB0009BCFD33FE1F0D43F21F11111F3CF0111CA
:100EC00050C08C2F8F71E1CF112341F0053008F015
:100ED0008BCF8C2F8F710E949C0886CF0530F7CF67
:100EE0008C2F8F711111D1CF0E9480087DCF1123DB
:100EF00029F08C2F8F710E94770876CF0E9473089B
:100F000073CF8091FE0282FD06C08C2F8F7111235A
:100F100009F4BBCFE9CF112349F0CF718C2F0E9488
:100F2000800863E08C2F0E940B0D5ECF81E00E9451
:100F3000290D023008F458CF82E00E94290D54CFC9
:100F40008C2F8F71D1CF002309F4BBCFD93349F453
:100F5000EFEFF7EE23E0E150F0402040E1F700C072
:100F600000008D2F0E945C053FCF0F931F93CF93FE
:100F7000DF93EC01688179818D810E946C098C017D
:100F80000E94BA080E945208B801CE010E94BE0514
:100F9000DF91CF911F910F910895CF93DF93EC01D3
:100FA0008C81882399F0CE010E940104811111C027
:100FB0000E94690C882351F08D81882339F080913B
:100FC000FE0282FF03C082E00E94290DDF91CF91D3
:100FD0000895CE010E94B507CE010E94D003F6CF3E
:100FE00080E090E00E944E2780E090E00E9474270D
:100FF0000E94930C0E94040D0E94B8210E949B2124
:1010000008950E94FB270E94F00708950E94820C19
:101010000E9401080895282F92959F70963091F0B4
:1010200060F4925F9F70923030F481E0203F79F05D
:1010300030F4283E30F080E008959A5FF3CF243FEB
:10104000D1F7089581E0283EE0F3213FF9CF0895DC
:10105000FC018481882339F0808191810E945F099D
:101060000E940B08089580E00895A6E0B0E0EBE34D
:10107000F8E00C94DD322696E2E00C94F932A7E019
:10108000B0E0E5E4F8E00C94DD322796E2E00C9461
:10109000F93208950E94490808950E944A088093F1
:1010A0000E02089508950E944D08089590910E0231
:1010B000892B0E944D08089590910E0289230E9469
:1010C0004D08089590910E0289270E944D080895B9
:1010D0000E94490808950E94680808950E946B08BC
:1010E00080930D02089580E00E946E08089591E0BB
:1010F00001C0990F8A95EAF7892F0E946E0808951A
:1011000021E030E001C0220F8A95EAF780910D02BC
:10111000822B0E946E08089521E030E0A90102C0F0
:10112000440F551F8A95E2F7CA01809590910D02F0
:1011300089230E946E08089521E030E001C0220F4B
:101140008A95EAF780910D0282270E946E08089521
:1011500090910D02892B0E946E08089590910D02C6
:1011600089230E946E08089590910D0289270E949C
:101170006E08089508959B01677091E001C0990F72
:101180006A95EAF763E0369527956A95E1F7B90124
:10119000660F771F260F371FFA01E20FF31F40E09B
:1011A00050E0682F70E08191DF0111979B01042EC0
:1011B00002C0369527950A94E2F7217021952827D9
:1011C000292328272C934F5F5F4F4330510559F750
:1011D00008959C01A82FA77083E0369527958A95DE
:1011E000E1F7C901880F991F820F931FFB01E80FD8
:1011F000F91F40E050E080E0219130E00A2E02C06B
:10120000369527950A94E2F721703327042E01C002
:10121000220F0A94EAF7822B4F5F5F4F433051054C
:1012200059F70895282F862F953068F42A3058F4FE
:10123000622F70E02AE0929F600D711D112448EF2B
:1012400051E00E94BB080895292F953068F48A3038
:1012500058F490E068EF71E03AE0239F800D911D13
:1012600011240E94E908089580E00895A0E0B0E00C
:10127000ECE3F9E00C94D8327C0100910D028091EE
:101280000E02082BC3E0D0E010E0C8010C2E02C013
:10129000959587950A94E2F780FD09C02197A8F7F4
:1012A000D12C8D2DCDB7DEB7E7E00C94F432DC2ED7
:1012B000B7018C2F0E945610019781F3F2CFCF9384
:1012C000DF93D82FC92F0E9436096D2F7C2F0E94E3
:1012D0005610DF91CF9108951F93CF93DF93162F70
:1012E000D72F9091F701992341F0862F972F0E94D5
:1012F0005F09DF91CF911F910895882381F0862F98
:10130000972F0E943609C82F682F812F9D2F0E948A
:101310001209612F7D2F8C2F0E945610EACF862F45
:10132000972F0E942409C82FF4CFE1E0F0E0DF01FD
:1013300002C0AA0FBB1F6A95E2F7BD01DF0102C020
:10134000AA0FBB1F4A95E2F76A2B01C0EE0F2A9540
:10135000EAF7962F9823961302C08E2B0895E095F6
:101360008E230895242F462F682F80910D020E940E
:1013700095090E946E0808950F931F93CF93E091F3
:101380000F02C7E0809110028E1304C0CF911F910D
:101390000F9108950E2F10E0CE9FF0011124EF5E03
:1013A000FD4F208131814281538164817581868125
:1013B0000E943F08F8013196E770E4CF209149027E
:1013C00030914A0240914B0250914C0260914D0283
:1013D00070914E0280914F020E943F0808958091C3
:1013E0004F02803178F480914E02882359F0E091C9
:1013F0000F022091100230914A024091490257E0B9
:101400002E1301C008956E2F70E05E9FF00111242D
:10141000DF01AF5EBD4F14968C911497882361F164
:1014200011968C911197831327C08C91841324C03B
:1014300015968C91159781111FC012968D919C91D4
:10144000A0914B02B0914C028A1B9B0B883C9105EA
:1014500098F480914F028F70806180934F02E95E13
:10146000FD4F80818F708061808389E492E00E94CB
:10147000CD070E94BC090895FB013196E770C0CFEB
:10148000E0910F029091100227E0E91302C080E082
:101490000895AE2FB0E02E9FF0011124EF5EFD4FB6
:1014A0003181361306C03081381303C035813413BF
:1014B00004C0FD013196E770E8CF81E008958F9276
:1014C0009F92AF92BF92DF92EF92FF920F931F9382
:1014D000CF93DF93CDB7DEB72D970FB6F894DEBF6D
:1014E0000FBECDBF8C0186E0F801DE011896019099
:1014F0000D928A95E1F7F801E080F580A280B38033
:10150000848199E4892E92E0992E90914D02911157
:101510001BC0882309F4FCC0FF2009F43DC1C801A9
:101520000E942808882309F437C187E0F801D40114
:1015300001900D928A95E1F7C4010E94EF040E9488
:10154000EF090E94DE09E4C0D0904E0220914B02C8
:1015500030914C02A501421B530BDD2009F4DBC086
:10156000483C510508F0A6C0882309F4D1C09091E9
:101570004A02918080914F02803108F06BC099122D
:1015800028C0909149029E1124C0F1105DC08F7057
:10159000806180934F020E94DE0989E492E00E94FC
:1015A000CD0780914F02F8018683F12C8F2D2D9667
:1015B0000FB6F894DEBF0FBECDBFDF91CF911F9164
:1015C0000F91FF90EF90DF90BF90AF909F908F9022
:1015D0000895F11039C040E0692D8E2D0E94400A17
:1015E00040E0692D8E2D0E94400AF82E8111DDCF3A
:1015F000888599850E945F09292F22952F70903444
:1016000050F49F70223080F0992399F0F801968170
:10161000903178F4CBCF2A5F2F70223078F0C80158
:101620000E94CD07FD2CC2CF992319F0882309F41D
:10163000BDCF805E883008F4B9CFF1CF803F08F489
:10164000B5CF815F8230F7CF80914F028160809368
:101650004F02ABCF991207C0909149029E1103C06F
:10166000FF2009F479C0C8010E942808882309F4E2
:1016700093C0FF2009F490C080914F02803288F01F
:101680002091490230914A023A832983BC82AB827D
:1016900090914D029D831E828F83CE0101960E9400
:1016A000CD0787E0F801A9E4B2E001900D928A9598
:1016B000E1F745CF90914F029031A0F448855985CC
:1016C0006A857B858C859D850E94350889E492E03A
:1016D0000E94CD0787E0F40111928A95E9F70E94F4
:1016E000DE0963CF8823A1F020914A02818128136B
:1016F000BACF809149028E11B6CFF110B4CF968344
:10170000C8010E94CD0787E0F40111928A95E9F79C
:10171000FF24F3944BCF483C510508F041C0882387
:10172000B9F3FF20C9F190914A02818198132AC030
:10173000809149028E1126C080914F0280FD19C010
:101740008031B8F08683807F803F39F08681982F82
:10175000907F905F8F70892B8683C8010E94CD0790
:1017600087E0F801A9E4B2E001900D928A95E1F7D3
:10177000E8CE87E0F801A9E4B2E001900D928A95E5
:10178000E1F7C6CFC8010E94280881118ACF809155
:101790004F02816080934F02C8010E94CD07B8CFED
:1017A000488559856A857B858C859D850E9435088D
:1017B00091CFAEE0B0E0EFEDFBE00C94DC32288797
:1017C00039874A875B876C877D878E87CE0108962D
:1017D0000E945F0A8823B1F06C85662341F028855A
:1017E00039854A855B857D858E850E943F0817E097
:1017F00080910F029091100289133EC02E96E3E073
:101800000C94F83287E0FE013896DE0111960190C3
:101810000D928A95E1F72091100240910F028C857C
:10182000882329F330E0C90101968770992750E099
:101830008417950799F097E0929FD001939FB00D80
:101840001124AF5EBD4FFE01319601900D929A9525
:10185000E1F7809310020E94BC09C9CF0E940608DC
:101860001092100210920F0287E0E9E4F2E0DF012B
:101870001D928A95E9F7BBCF189FC00111248F5E96
:101880009D4F0E945F0A882309F4B8CFE0910F02B0
:101890001E9FF0011124EF5EFD4F208131814281B6
:1018A00053816481758186810E943F0880910F0277
:1018B00090E001968770992780930F0299CF8091CD
:1018C000580286958695869508958091580287706E
:1018D000089590915802977081E0911101C080E0C5
:1018E000089580916402089590916402982B9093DA
:1018F00064020895982F90958091640289238093C3
:101900006402089510926402089590916302982BE6
:10191000909363020895982F909580916302892394
:1019200080936302089510926302089508950E94BF
:10193000960C089590915902292F2823222331F0E3
:1019400080958923809359020E94970C08950895E9
:101950000E94A70C089590915A02292F2823281736
:1019600029F0982B90935A020E94A80C0895909108
:101970005A02292F2823222331F08095892380932E
:101980005A020E94A80C089580915A02882329F0D7
:1019900010925A0280E00E94A80C08950F931F93A2
:1019A000CF93DF930091040110910501C09164026F
:1019B00080916302C82BD0915A02DD2331F00E943E
:1019C0009A2781110E94C40CCD2BF801C083C091CD
:1019D0000401D091050148E050E060E572E0CE01DD
:1019E0000E94A333892B59F088E0FE01A0E5B2E004
:1019F00001900D928A95E1F7CE010E943427DF9184
:101A0000CF911F910F9108950E94CE0C08950895D3
:101A10000E94070D08959091FE0292FF11C098E078
:101A2000899F90011124622B609358020E948008C4
:101A3000809158028695869586950E94080D089596
:101A40000E94800808951092580280E00E94080DBC
:101A50000895909158028095892380935802282FE9
:101A6000277021110DC0891759F09091FE0292FF45
:101A700007C08695869586950E948C080E94230D46
:101A800008959091FE0292FB222720F9281769F011
:101A900080FB92F99093FE028091FD029091FE02EC
:101AA0000E948A0D82E00E94290D08958091FE0215
:101AB00082FB882780F991E089270E94410D0895D3
:101AC00081E00E94410D089580E00E94410D08953B
:101AD0006FEF7FEF80E090E00E94FB33089580E09D
:101AE00090E00E94C733863E9E4F19F40E94DE2488
:101AF000089580E0089582E090E00E94B93308954F
:101B000083E090E00E94B933089584E090E00E9461
:101B1000C7330895BC0184E090E00E94FB33089530
:101B2000AB01BC018FE090E00E94EF330895AB0160
:101B3000BC0183E190E00E94EF33089560E070E023
:101B4000CB010E94970D089560E070E0CB010E94E8
:101B5000900D0E949E0D0895A8E0B0E0E2EBFDE03C
:101B60000C94DD3266EE7EEF80E090E00E94FB3365
:101B700060E082E090E00E94DD3381E080930E021D
:101B800061E083E090E00E94DD3360E074E184E096
:101B900090E00E94FB3360E086E090E00E94DD333D
:101BA00060E087E090E00E94DD3340E050E0BA0161
:101BB00088E090E00E94EF3360E084E290E00E94D1
:101BC000DD3360E087E190E00E94DD3360E08CE08F
:101BD00090E00E94DD3360E08DE090E00E94DD3314
:101BE00019821A821B821C821D821E821F82188605
:101BF00048E050E068E170E0CE0101960E94CD33EC
:101C000040E050E0BA0180E290E00E94EF3380E0D3
:101C10000E94F7240E9436250E94A40D2896E2E037
:101C20000C94F9320E94AC0D0895682F8EE090E07C
:101C30000E94DD330895A6E0B0E0E1E2FEE00C94FE
:101C4000DB320E94D5288C0180916502909166025A
:101C50008017910779F019821A820E94D528BC0159
:101C600049815A8180E090E00E94BF04109366028F
:101C7000009365022696E4E00C94F7320E94E12876
:101C80006093790270937A0280937B0290937C0236
:101C90006093750270937602809377029093780236
:101CA00008950E94E1286093790270937A028093EC
:101CB0007B0290937C026093710270937202809316
:101CC0007302909374020895089508950E94640E1B
:101CD000089508950E94690E08958EE491E10E948E
:101CE000BB120E94650E0E94660E089581E0089561
:101CF0000E94760E08950E94760E08950895089524
:101D00000E947E0E0E947F0E08950E946F0D811129
:101D100002C00E94120E0E947B0D80937D020E94E1
:101D2000850D9093FE028093FD020E94961D0E94F5
:101D3000800D0E94530880910D020E946B08089547
:101D40000E94CC280E9446250E940B120E94850EFC
:101D50000E9493040E94BD1B0E9401130E946A0E00
:101D60000895A6E0B0E0E7EBFEE00C94D1320E94CB
:101D7000780E811111C00E941B0E0E94B91C0E9496
:101D8000561381110E94510E0E94F4210E94A60454
:101D90002696EEE00C94ED320E94211227E6822E68
:101DA00022E0922E640110E0F601E190F1906F01C3
:101DB000812F0E9458111F5F153009F44DC0E8169D
:101DC000F90691F380917D0281FD0E9461110E94CC
:101DD0007B0E782EF12C662463948F2D0E9458116F
:101DE0008C01F401A190B1904F018A159B0569F116
:101DF000A826B926E12CCC24C394D12CC5018C2172
:101E00009D21892BC1F07720B1F0E982FA820E94EE
:101E1000D5289C838B836D8221E0C8018C219D2174
:101E2000892B09F420E049815A816B817C818D8165
:101E3000922F0E94BF04E394CC0CDD1CFAE0EF1259
:101E4000DDCFF401329711830083F39485E0F8121B
:101E5000C4CF0E943E0E91CFE816F90609F0B2CF2A
:101E60008ACF1F93CF93DF930E945B10EC01811503
:101E700022E5920708F053C0811540E5940708F069
:101E8000DDC0803E9105F8F48D3C910508F0AEC0B0
:101E9000883A910580F4853A910508F099C081301F
:101EA000910521F00497813A910550F4CE01DF911C
:101EB000CF911F910895885A91094B9708F48BC0D0
:101EC000C0E0D0E0F3CF811550E49507F8F4C115D8
:101ED00080E2D80708F0CBC0C83ED10538F3CE0168
:101EE0009A9581159F4160F78D2F0E94FF10182F42
:101EF000CE0199270E945B10212F30E0322F22273C
:101F0000E901CC27DF71C82BD92BD0CF99270E94AC
:101F10005B10CC27DF70C82BD92BD06AC7CF803895
:101F200042E59407C8F5803652E5950708F067C08A
:101F3000C03482E5D807B0F08C2F869586958770DF
:101F400020E2829FC0011124C37021E030E0A9018A
:101F500002C0440F551FCA95E2F7EA01C82BD92BDE
:101F6000DC68A4CFC03252E5D50708F041C08C2F01
:101F70008695869520E2829FC0011124C37021E0DE
:101F800030E0A90102C0440F551FCA95E2F7EA01EB
:101F9000C82BD92BDD688ACF803C52E5950760F4C9
:101FA0008F71C03AD24508F03FC090E0982F882743
:101FB000EC01C46FD06A7ACF805C9245809708F0BC
:101FC0007FCFDC2FCC27CC27DF71C06FD06A6ECFDC
:101FD000A497D0646BCFC85AD0E0CC0FDD1FC9598D
:101FE000DE4F0990D881C02DD46460CFD0655ECF1C
:101FF000CF71D0E0DC2FCC27C16FD06A57CF869548
:102000008695877020E2829FC0011124C37021E071
:1020100030E0A90102C0440F551FCA95E2F7EA015A
:10202000C82BD92BDA6842CF0E94FF10C82FD0E00E
:10203000DC2FCC27CC27DF71D06238CF8F710E9484
:10204000FF1065E0D695C7956A95E1F7CF70D0E0AF
:10205000DC2FCC27282F30E084FF05C054E0220F6E
:10206000331F5A95E1F7C22BD32BD0691FCF8D2F89
:102070008F710E94FF10182FCE0199270E945B10CC
:10208000212F30E0322F222722273F71282B392B96
:10209000E901D2CF462F672F753028F44A3018F463
:1020A0000E944A1E089580E090E008950E944A1020
:1020B0000E94310F0895803E9105D1F1C8F481331B
:1020C000910509F47FC048F48932910509F46FC085
:1020D0008A32910509F47DC0089589339105E1F0B4
:1020E00082389105C9F08533910509F45BC00895E4
:1020F000843E9105D1F148F4823E910531F1833E51
:10210000910541F181EE90E00895863E9105C1F17F
:10211000873E9105E1F108952091FD022370211180
:1021200065C02091FE0223FF14C089E290E008956B
:102130002091FD0220FD43C03091FE0230FF09C016
:1021400024FF4EC080E090E008952091FD0222FD22
:10215000F7CF08952091FD0222FD45C03091FE0287
:1021600030FD44C024FFF5CFEDCF2091FE0221FFCA
:10217000F0CF8091FD0284FDE5CF87EE90E00895D9
:102180002091FD0223FFE5CF24FDDCCFF6CF209187
:10219000FD0223FD2EC03091FE0231FFE3CF84EE1D
:1021A00090E008952091FD0225FFD3CFBECF20916E
:1021B000FD0225FD21C02091FE0223FFCACF89E345
:1021C00090E008952091FD0226FFC3CF8AE290E0BF
:1021D00008952091FD0226FFBCCF81E390E0089591
:1021E00083EE90E0089582EE90E0089580EE90E016
:1021F000089586EE90E0089585E390E0AACF90914F
:10220000FD0292FF10C041E0282F2471243009F014
:1022100040E031E0282F2871283009F030E04317E2
:1022200011F02CE0822793FF10C041E0282F247189
:10223000243109F040E031E0282F2871283109F0DD
:1022400030E0431711F02CE082273091FE0230FF7E
:1022500010C051E0282F2171213009F050E041E0F9
:10226000282F2871283009F040E0541711F029E098
:10227000822731FF10C041E0282F2171213109F060
:1022800040E031E0282F2871283109F030E0431771
:1022900011F029E0822794FD877E089580E008955B
:1022A00008950E945011089508950E9454110895B0
:1022B000E82FF0E0EE0FFF1FE75FFC4F8081918178
:1022C0000895089580EA8A95F1F7089500C0089569
:1022D0000E9462110895F894E82FE295EF70F0E003
:1022E00041A18F7021E030E0B90102C0660F771F75
:1022F0008A95E2F7CB01962F9095942391A392A112
:10230000892B82A3789408950F931F93CF93DF9323
:10231000C7EAD1E089918F3F11F00E946B1181E0F3
:10232000CC3AD807B9F7CDE9D1E007EA11E08991B5
:102330008F3F11F00E946B110C171D07C1F7DF9141
:10234000CF911F910F910895A0E0B0E0EAEAF1E18A
:102350000C94D632EC01B62E062F10E0C801895538
:102360009E4F7C01FC0180818F3F09F44FC0F8949F
:10237000E82FE295EF70F0E091A18F7021E030E05E
:1023800001C0220F8A95EAF7892F822B81A382A1AF
:102390002095282322A378940E946611EDE9F1E0AC
:1023A00041E050E0C12CD12C21912F3F89F0A22F88
:1023B000A295AF70A05EB0E08C9190E02F7002C04B
:1023C000959587952A95E2F781709A01882311F0F7
:1023D00020E030E0C22AD32A440F551F81E0E73ABB
:1023E000F80711F7F70180818F3F11F00E946B1100
:1023F00061E0C114D10409F460E08B2D0E946811E2
:10240000000F111FC00FD11FD982C882CDB7DEB710
:10241000E9E00C94F2320E9484118AE0E9E0F3E0F2
:10242000DF01982F1D929A95E9F7EFEFF2E0DF01B7
:102430001D928A95E9F785E00E945E120E94511173
:102440000895AAE0B0E0E7E2F2E10C94DA32FE018E
:1024500031968AE0DF011D928A95E9F710E0FE2EA1
:102460000F2F612F8F2D902F0E94A4111F5F153009
:10247000C1F74AE050E06F2D702F8FEF92E00E947D
:10248000A33321E0892B81F420E045E069E073E08B
:102490008FEF92E00E945F12182F0E945511812F3A
:1024A0002A96E5E00C94F6328AE0EF2DF02FAFEF9C
:1024B000B2E001900D928A95E1F7E7CF0895A0E090
:1024C000B0E0E5E6F2E10C94D732D82EE92EF62EF4
:1024D000D72F042FC22F222379F081E0809380022E
:1024E0000E94D52890937F0280937E0280E0CDB732
:1024F000DEB7E8E00C94F332C0908002CC20B1F358
:1025000080917E0290917F020E94FE28059770F3D1
:1025100010E0000F111FA8016D2D7E2D8F2D9D2F16
:102520000E94A333892B41F0A8016D2D7E2D8F2DA4
:102530009D2F0E94B033CC2D109280028C2FD7CFCC
:102540000E94852C0E94A00E0E94922C08950E9449
:10255000972C0E94B10E0E94B12C08950E946E2803
:102560000E946B2C0E946D0E0E94A0120E94A71266
:102570000E94800EFBCF9093F1018093F0010895AB
:1025800008950895ACE0B0E0E8ECF2E10C94DD329F
:102590004F83588769877A878B879C8786E0FE01FF
:1025A0003796DE01119601900D928A95E1F7298107
:1025B0003A814B815C816D817E8180E090E02C9638
:1025C000E2E00C94F932ACE0B0E0E9EEF2E10C9418
:1025D000DD320E94C21280E090E02C96E2E00C9482
:1025E000F93221E030E0F90102C0EE0FFF1F4A95F9
:1025F000E2F7AF01662311F08E2B089540958423F6
:102600000895E091AC01F091AD0109950E94C012CE
:102610000E94C1120895CF9361E872E088E892E0C9
:102620000E940628C82F882321F088E892E00E94A3
:102630003F279091890286E0E8E8F2E0DF01282F49
:102640001D922A95E9F790938902A1E8B2E00190E2
:102650000D928A95E1F781E0C11103C0911101C08B
:1026600080E08170CF910895ACE0B0E0EAE3F3E15F
:102670000C94DD324F8358878B879C8761957987CF
:102680006A8786E0FE013796DE01119601900D9271
:102690008A95E1F729813A814B815C816D817E8148
:1026A00080E090E02C96E2E00C94F932A6E0B0E0F5
:1026B000ECE5F3E10C94DD32E091AE01F091AF0175
:1026C000409188025091890260918A0270918B0238
:1026D00080918C0290918D020995F42FE52FCB010A
:1026E000A9016F2F7E2F0E943413F42FE52FCB0109
:1026F0002093880230938902F0938A02E0938B0240
:1027000060938C0290938D02A9016F2F7E2F0E94FF
:10271000E312209388023093890240938A025093F7
:102720008B0260938C0270938D020E94C62180916F
:102730008902832B809389020E940B13811109C0A7
:10274000809187021092870281702696E2E00C94B5
:10275000F93281E090E0F6CFAC01815D91090897F4
:1027600048F4415D809189020E94F11280938902B0
:102770000E940B130895FC0180819181803891059E
:102780003CF09C012F5731098FE731832083089556
:1027900080382FEF92072CF49C0121583F4F80E89E
:1027A000F4CF20E030E0F1CFA1E1B0E0EAEDF3E1D9
:1027B0000C94DA324C87888B998B152FF62E072FC5
:1027C000CE01079625E0FC0111922A95E9F72091A8
:1027D00094022A3008F040C00E949514892B09F019
:1027E00062C0109294028B8540E087FD54C060E087
:1027F000812F0E94F112182F2091920230919302A2
:102800002115310509F040C048E06F8188850E949C
:10281000AC142091900230919102280F391F30930F
:1028200091022093900248E069858A850E94AC1449
:1028300020918E0230918F02280F391F30938F0222
:1028400020938E0280E992E00E94BB13F82E8EE85E
:1028500092E00E94BB13082F1D87FE860F8786E03B
:10286000FE013C96DE01119601900D928A95E1F7EA
:1028700029813A814B815C816D817E8180E090E08D
:102880006196E5E00C94F6322150310930939302C1
:1028900020939202E1CF61E0812F0E94F112182F64
:1028A00024E130E0F3CF909194029F5F90939402E3
:1028B000D3CF80910601909107012DE7AC01249FB1
:1028C000C001259F900D112408959C0161E070E0E6
:1028D000893F910560F0EDE7F0E0BF010E944532CD
:1028E000A901481B590BCA01BF010E9445326093E0
:1028F0000601709307010895A4E0B0E0E2E8F4E176
:102900000C94DB3289836A834B832C8304E610E0CA
:1029100024E030E0AE014F5F5F4F60E084E10E9451
:10292000222A2496E4E00C94F7320F931F93AC0113
:1029300004E610E025E030E064E084E10E94742ABF
:102940001F910F9108950E94A22920E040E060E0CD
:1029500080E00E947C14089550E02091060130919F
:1029600007016817D8F4861B849FB001859F700DFE
:102970001124869FA001879F500D1124429FC00102
:10298000439F900D529F900D1124880F892F881F0F
:10299000990B91959195819591090895681B649F74
:1029A000C001659F900D1124689FA001699F500D83
:1029B0001124429FC001439F900D529F900D1124FE
:1029C000880F892F881F990B91950895A0E0B0E09A
:1029D000ECEEF4E10C94D532E82F71110DC04423D4
:1029E00021F0F0E0EA5AFC4F8491682F782FCDB7A0
:1029F000DEB7EAE00C94F132262F30E0C72FD0E0AA
:102A0000F0E0442321F0EA5AFC4FE491F0E086E044
:102A1000829F7001839FF00C11240FEF10E0C7011B
:102A2000B8010E944532AB01220F331F65E5649F58
:102A3000C001659F900D1124281B390BC22ECC0CB0
:102A4000C20EC8018C1B9D0B8E9F90018F9F300D75
:102A50009E9F300D1124832FCC9EB001CD9E700D12
:102A60001124672F77275801A61AB70AAE9ED00106
:102A7000AF9EB00DBE9EB00D11247B2F5801AC1837
:102A8000B1086501CC9E5001CD9EB00CDC9EB00C0F
:102A90001124AB2CBB240A191B090E9FE0010F9FC8
:102AA000D00D1E9FD00D11246E2F43305105C9F05B
:102AB0009CEFE91693E0F90650F44130510509F412
:102AC00096CF4230510589F07E2F6D2F90CF443044
:102AD000510571F046305105B9F3632F8B2F7E2FCE
:102AE00086CF6B2F732F8E2F82CF732F8D2F7FCF9B
:102AF0007D2F632FF8CF41E00E94E61408950895DA
:102B00000E947B150895CF93DF93982F762F842F03
:102B1000E901692F0E948015798368838A83DF9198
:102B2000CF91089580911303843028F483708460DA
:102B30008093130308958C3AE8F38370886AF8CF82
:102B40004F925F926F927F928F929F92AF92BF92BD
:102B5000CF92DF92EF92FF920F9388E090E00E9475
:102B6000C1332B013C0184E290E00E94B933282F4D
:102B700030E040E050E060E070E080E090E000E2B3
:102B80000E94043353014201C12CD12C7601242927
:102B900039294A295B296C297D298E299F290F9182
:102BA000FF90EF90DF90CF90BF90AF909F908F906D
:102BB0007F906F905F904F900895A0E0B0E0E3EEBB
:102BC000F5E10C94D7328901D42FC52F6B017C011C
:102BD0000E949215A8016D2F7C2F88E090E00E9442
:102BE000EF3398014D2F5C2FB601C70100E20E9420
:102BF0001F33622F84E290E00E94DD33CDB7DEB751
:102C0000E8E00C94F332E3E1F3E02081318142818A
:102C1000538164817581868197810E94DD150895B5
:102C2000E3E1F3E085E0808311828FEF8283838389
:102C30001482758125E030E04FEF5FEF60E0868120
:102C400097810E94DD1508958091130380FF03C0D2
:102C500086958695089580E008958091130381708C
:102C6000089590911703933018F49F5F9093170382
:102C7000882391F0209113033091140340911503A0
:102C800050911603609117037091180380911903F6
:102C900090911A030E94DD15089581E00E9431167B
:102CA000089590911703992319F091509093170369
:102CB000882391F020911303309114034091150360
:102CC00050911603609117037091180380911903B6
:102CD00090911A030E94DD15089581E00E9451161B
:102CE000089580911703089580931703662389F050
:102CF0002091130330911403409115035091160352
:102D000070911803682F8091190390911A030E9403
:102D1000DD15089560E00E947416089580911403F3
:102D20000895809115030895809116030895609188
:102D30000C018091130380FF11C070E020910B0102
:102D400030E0C901880F991F820F931FE091DF01C6
:102D5000F091E001855E9C4F0995089580910D01E9
:102D600090910E01282F30E0F901EE0FFF1FE20FC6
:102D7000F31FE55EFC4F891700F711821082128263
:102D80008F5F3396F8CF9091130390FF11C090910D
:102D90000D0150910E01292F30E0F901EE0FFF1FB8
:102DA000E20FF31FE55EFC4F951718F00E9497168F
:102DB00008958183608342839F5F3396F5CFA3E0BC
:102DC000B0E0E5EEF6E10C94DD329091130390FF54
:102DD0000AC09E012F5F3F4F0E9483154B8169817E
:102DE0008A810E94C3162396E2E00C94F932CF93B5
:102DF000DF93EC01EC81F0E0EF5AFD4F4491E3E109
:102E0000F3E0628181810E94DF168C818F5F8C8369
:102E1000DF91CF910895CF93DF93EC01E3E1F3E0ED
:102E2000438162818C810E94DF168C818F5F8C834D
:102E3000DF91CF910895A3E0B0E0E1E2F7E10C94D7
:102E4000DB328C018091950281110AC09E012F5FB7
:102E50003F4F4FEF6FEF0E9483158A818093950259
:102E6000F8016481613049F06230D1F080919502BF
:102E700040E0662331F040E015C06091950240E0EB
:102E800080E00E94C316F801848190E0019663E01F
:102E900070E00E94593284832396E4E00C94F73268
:102EA0004091950280E060E0ECCFA3E0B0E0EBE57C
:102EB000F7E10C94D532F82ED62EE42EB22E909156
:102EC000130390FF2FC0E92FE695E695AE2FB0E0F3
:102ED000AC54BE4F8C918093D8029C7F943031F5D6
:102EE0009E012F5F3F4F8F2D0E9483154B8169817B
:102EF0008A810E94C316F0921403D0921503E092C7
:102F00001603BB2079F02091130360911703709191
:102F100018033F2D4D2D5E2D8091190390911A03BA
:102F20000E94DD152396EAE00C94F132823019F408
:102F3000E0901603E0CF863019F4F0901403DBCF55
:102F40008930D9F38931B9F6E9518E2F8170A82ED5
:102F5000E695F0E0EF5AFC4FE491C12C0E2F10E003
:102F600060910F01C61618F00E949716C4CF2C2D41
:102F700030E0C09EC001C19E900D112470E00E94FF
:102F800045328F2DA11013C0860F90910D01A9011C
:102F9000490F511D9A01220F331F240F351F255E43
:102FA0003C4F4E2D6D2D0E948315C394D9CF861BA7
:102FB000ECCF282FE3E1F3E0818143816281885FD8
:102FC0000E945517089581E00E94D9170895282F6F
:102FD000E3E1F3E081814381628188500E945517CB
:102FE000089581E00E94E7170895282FE3E1F3E0B8
:102FF000628131E1630F08F46FEF438181810E94A8
:103000005517089581E00E94F5170895282FE3E1F0
:10301000F3E0628131E1631B08F460E04381818168
:103020000E945517089581E00E9406180895282FE0
:10303000E3E1F3E0438131E1430F08F44FEF6281B4
:1030400081810E945517089581E00E941718089504
:10305000282FE3E1F3E0438131E1431B08F440E032
:10306000628181810E945517089581E00E9428188D
:10307000089520E00E9455170895EF92FF921F9344
:10308000CF93DF93EC0110E0EE24EA94F12C6091F1
:103090000F01161770F00E9497169A818C8190FF8D
:1030A00025C08F5F8C83DF91CF911F91FF90EF90B0
:1030B000089580910D01810F9927991F9C01220F7E
:1030C000331F280F391F255E3C4F70E0C7010E9457
:1030D0005932962F8C814091160360911503199FE8
:1030E000800D11240E9483151F5FD1CF8150DACF4C
:1030F000A0E0B0E0EEE7F8E10C94D632FC0182816A
:1031000001E080FD0FEF10E080910F01181798F09B
:103110000E94971680919702013009F051C08111E9
:1031200002C080910F01815080939702CDB7DEB726
:10313000E9E00C94F23280910D01C12ED12C8C0D5E
:103140009D2D911DEC01CC0FDD1FC80FD91FC55E51
:10315000DC4F198218821A8234E0E32EF12CB12C54
:10316000809197028B0D8C302CF16BE00E943732EE
:10317000892F082E000C990BC816D90691F480915E
:1031800016038E9DA0018F9D500D112455954795D6
:10319000559547959E0160911503809114030E94F7
:1031A0008315B00EF1E0EF1AF108E114F104C1F655
:1031B0001F5FAACF87FFDDCF90910F01890FD9CF75
:1031C00090E0019660910F0170E00E945932ACCFFF
:1031D0000F931F93CF9380910D0190910E01282F93
:1031E00030E0F901EE0FFF1FE20FF31FE55EFC4F29
:1031F000891730F1C0E060910F01C61738F10E94C5
:1032000097162091090180919602820F8093960271
:1032100090910A01920F90930A01191654F4082E06
:10322000000C990B40910F014150550B84179507E5
:103230001CF0219520930901CF911F910F910895C2
:103240001182108212828F5F3396D2CF0C2F10E042
:1032500070E0C8010E94593290910D01980F892F9A
:1032600090E020919602022E000C330BFC01EE0F31
:10327000FF1FE80FF91F02171307ACF020910A0196
:10328000022E000C330B201731076CF09F01255ED6
:103290003C4F4091160360911503809114030E94E6
:1032A0008315CF5FA8CFE55EFC4F1182108212829A
:1032B000F8CFAEE0B0E0EFE5F9E10C94D9328D87BC
:1032C0009E87AD85BE8514961C91212F30E0D901D3
:1032D0000E94A4329B01AC010E94BA3269837A83B6
:1032E0008B839C83E0E2F0E0E11BF109A5E5B0E00F
:1032F0009B01AC010E94BA3269877A878B879C87D1
:103300009F01DF010E949C329B01AC010E94C532EB
:103310006D837E838F8398879B01AC0189819A811D
:10332000AB81BC81280F391F4A1F5B1F69857A85D5
:103330008B859C850E946D32022F30E00A3248F561
:10334000A901440F551F420F531F55954795142F40
:103350001095F12C85E5E82EE01A80910F01F81602
:1033600030F10E949716AD85BE8514969C9181E040
:10337000992319F0903219F48FEF8093080180910E
:103380000801890FED85FE8584832E96E6E00C9476
:10339000F53285E590E0821B930BAC01440F551F7D
:1033A000480F591F57FFD1CF4F5F5F4FCECF8E2DA4
:1033B000F1FC802F40910D014F0D5527551F9A01AB
:1033C000220F331F240F351F255E3C4F412F609184
:1033D00015030E948315F394C0CF0F931F93CF93CF
:1033E000DF93EC0100E010E040910F01842F90E0AA
:1033F000081719076CF00E9497168C8190E00196CF
:10340000817099278C83DF91CF911F910F9108953F
:1034100080910D01800F912F911D9C01220F331F70
:10342000280F391F255E3C4F9C81609115038091C8
:103430001403469550E0041715074CF4992349F0FE
:10344000409116030E9483150F5F1F4FCDCF992324
:10345000B9F340E0F7CFA0E0B0E0E1E3FAE10C948B
:10346000CF32FC016280448081E08483E1E5F2E0B8
:103470007490E0EDF2E0E491C0911603C695C15856
:10348000D0E0CC0FDD1FCD2FDD27812C75E0972EEE
:10349000AA24AA94B12C55245A94E719EE2EF12CA3
:1034A00080910F01881638F00E949716CDB7DEB7CD
:1034B000E0E10C94EB32C82CD12C82E0861568F048
:1034C0009C9CF0019D9CF00D1124E856FD4F8091CD
:1034D00014038083809115038183411023C09C9C39
:1034E000F0019D9CF00D1124E856FD4F13821282CD
:1034F00080910D018C0D9D2D911D9C01220F331F7C
:10350000280F391F255E3C4F9C9CF0019D9CF00DBF
:103510001124E856FD4F4281618180810E9483150C
:103520008394BECF9C9C80019D9C100D1124085655
:103530001D4FF80183818823F1F081508383589EC9
:10354000C0011124648170E00E944532FB01FF2715
:10355000EF5AFD4F8491E82FE7195E9EC0011124B8
:10356000B7010E94453280911603689FB001112473
:10357000F8017283BDCF0E948633B5010E94593293
:103580008C179D070CF0B4CFF2E0F61598F40E946A
:103590008633B5010E945932F80180830E94863338
:1035A000209115032695622F70E00E945932280F52
:1035B000F80121839C9CF0019D9CF00D1124E8569C
:1035C000FD4F128280911603893C58F088EC9C9C38
:1035D000F0019D9CF00D1124E856FD4F84838383F8
:1035E00087CF8431A0F784E1F2CFE3E1F3E02081DB
:1035F0002E7F208331814281538164817581868150
:1036000097810E94DD151092D9020E9497160895A5
:10361000E3E1F3E080818E7F80831092D9020E94E3
:10362000971608951092D9028091D60281110AC08E
:1036300081E08093D6028091130381708093D5023C
:103640000E94081B0895609113036695669570E0CB
:103650004BE050E080E191E00E949633892B19F411
:1036600081E08093D9020E94D5289093D002809364
:10367000CF0208959091130390FF3AC08823C9F1B7
:103680008B32C8F58F73282F220F220F80911303DE
:103690008370282B20931303662381F03091140349
:1036A0004091150350911603609117037091180310
:1036B0008091190390911A030E94DD156091130304
:1036C0006695669570E04BE050E080E191E00E94E5
:1036D0009633892B91F01092D90281E08093D20227
:1036E0004091160360911503809114030E943918CC
:1036F000089581E0C8CF8AE2C6CF0E94231BEDCF98
:10370000682F80911303869586958F5F8B3208F022
:1037100081E00E943A1B089581E00E94801B089579
:10372000682F90911303969596958FEF890F91309E
:1037300009F48AE20E943A1B089581E00E94901BDE
:10374000089561E00E943A1B0895E3E1F3E080816F
:1037500081608083869586950E94A11B0895809143
:10376000130380FF03C00E94F51A08950E94A51B51
:10377000089560E00E943A1B08958091D70281115C
:1037800037C00E94A0152093130330931403409375
:1037900015035093160360931703709318038093D7
:1037A000190390931A032430A0F40E9410160E946B
:1037B000A0152093130330931403409315035093E3
:1037C0001603609317037093180380931903909363
:1037D0001A030E9492151092D9028091130380FF60
:1037E00004C0869586950E94B91B81E08093D7021C
:1037F0000895E3E1F3E0808181608083869586957A
:103800000E94B91B08958091130380FF03C00E949A
:10381000081B08950E94F91B08951092D60280910A
:10382000D50281110E94F91B0E94231B08950F935A
:103830001F93CF93DF938091D9028823C1F18091A8
:10384000D802E0911303E695E695E81BE093D102D8
:10385000823091F5F0E0E35BFD4FE491CE2FD0E0B4
:1038600007EF16E18091D202882361F01092D20214
:103870000E94D5289093D0028093CF021092D40258
:103880001092D3020E94D5282091CF023091D0020D
:10389000821B930B8F3F9F4750F42C0F3D1F30939B
:1038A000D0022093CF028FEC92E0F8010995DF91CE
:1038B000CF911F910F910895C8E2D0E009E519E179
:1038C000883181F2C0F48F3009F43AC048F4863070
:1038D00021F1893059F1C0EDD7E00FE715E1C2CFF2
:1038E0008531C9F7F0E0EF5BFD4FE491CE2FD0E0DA
:1038F00008EE18E1B7CFC4EFD1E00DEE19E1843244
:1039000009F4B0CF853231F1833229F7EFE3F2E0E9
:10391000C591D4910BE117E1A5CFF0E0E65BFD4F37
:10392000E491CE2FD0E00BE017E19CCFE695F0E0DC
:10393000E95BFD4FE491CE2FD0E00DE318E192CF8B
:10394000E695F0E0EC5BFD4FE491CE2FD0E008E788
:1039500018E188CF8E2F63E00E942B32E92FF0E030
:10396000E45CFD4FE491CE2FD0E00BE21AE17ACF78
:1039700008950E94171C0895FA01882311F00995F3
:103980000895FB01FCCFCF93DF93C82FD62F0E9461
:1039900024168C1748F00E9424168D1728F40E94D4
:1039A0008C1BDF91CF9108958C2F0E94A11BF9CF22
:1039B0001F93CF93DF93EC01FB011581111168C0B8
:1039C0000E94710C8272FE01E052F847E531F10568
:1039D00008F05EC0E25CFB4C0C948F320E94AF1B7F
:1039E000812FDF91CF911F9108954DE95BE16CE844
:1039F0007BE10E94BC1CF4CF4CE85BE16DE97BE10C
:103A0000F8CF41EF57E163EE77E1F3CF43EE57E1B3
:103A100061EF77E1EECF43E158E162E078E1E9CF91
:103A200042E058E163E178E1E4CF45E358E164E244
:103A300078E1DFCF44E258E165E378E1DACF4DE6A3
:103A400056E16DE476E1D5CF4DE456E16DE676E1E1
:103A5000D0CF81E00E94A11BC3CF65E082E00E942D
:103A6000C31CBECF68E086E0FACF6EE089E0F7CFF6
:103A700064E18FE0F4CF67E185E1F1CF88E1EACF3F
:103A800062E289E1ECCF83E2E5CF6AE285E2E7CF4B
:103A900011E0A6CF9C01AB01539A6BB1677F7BB15C
:103AA0007860EFB7F894CA01880F991F840F951FAB
:103AB000820F931F8217930741F4EFBF8FE594E0C5
:103AC0000197F1F700C000000895D9014D919D01C3
:103AD00058E07BB9000000C047FF6BB9440F0000FD
:103AE00000C000C000C06BB900C05A9591F7E2CF8A
:103AF0000E94680D089580E00E9458118170089519
:103B00000E9421122FEF86E791E0215080409040E3
:103B1000E1F700C000000E9421120E947B1D882353
:103B200021F00E94781D0E94312908950E94801D75
:103B3000089584E0089550E0440F551F94E1699F73
:103B4000400D511D112494E6899F400D511D1124F3
:103B5000CA01899608950F931F93CF93DF93843002
:103B6000C8F46530B8F44A30A8F40E949B1D8C015B
:103B70000E94B933C82FD0E0DC2FCC27C8010196B2
:103B80000E94B9339E01282BC901DF91CF911F916B
:103B90000F91089580E090E0F8CF0F931F93CF939B
:103BA000DF93122F032F843078F4653068F44A30A5
:103BB00058F40E949B1DEC01602F0E94DD33612FA1
:103BC000CE0101960E94DD33DF91CF911F910F91BD
:103BD00008951F93CF93DF93D0E0C0E011C0412F31
:103BE0006C2F8D2F0E945C039C01412F6C2F8D2F19
:103BF0000E94CD1D1F5F1A3091F7CF5FC53011F0C5
:103C000010E0EDCFDF5FD43041F7DF91CF911F910E
:103C10000895EF92FF920F931F93CF93DF938C0140
:103C2000EA017A01E60EF71ECE15DF0529F4CDB7BD
:103C3000DEB7E6E00C94F532003981E0180740F475
:103C4000C80189960E94B93389930F5F1F4FECCF4B
:103C500080E0FACFEF92FF920F931F93CF93DF9301
:103C60008C01EA017A01E60EF71ECE15DF0529F474
:103C7000CDB7DEB7E6E00C94F532003981E01807E5
:103C800028F46881C80189960E94DD3321960F5F70
:103C90001F4FEBCF843038F4653028F44A3018F4E5
:103CA0000E94AB1D089580E090E0089580E10895A2
:103CB00087E492E00895EF92FF920F931F93CF93C2
:103CC000DF938C01EA017A01E60EF71ECE15DF05BF
:103CD00029F4CDB7DEB7E6E00C94F532073482E084
:103CE000180748F4C80187549E4F0E94B93389933E
:103CF0000F5F1F4FEBCF80E0FACFEF92FF920F9351
:103D00001F93CF93DF938C01EA017A01E60EF71E31
:103D1000CE15DF0529F4CDB7DEB7E6E00C94F53219
:103D2000073482E0180730F46881C80187549E4F39
:103D30000E94DD3321960F5F1F4FEACFCF93DF93B1
:103D4000C9EBD1E060E0CE010E94DD332196C115C0
:103D500084E0D807B9F7DF91CF910895A8E0B0E0EB
:103D6000E4EBFEE10C94D732F82E2FE0281708F48C
:103D70006FC08FEF93E00E94B933811169C009EBE6
:103D800011E0F11038C01A821982FE01339686E0E4
:103D9000DF011D928A95E9F76801BFEFCB1ADB0AB4
:103DA000C8010E94B93389831A82882309F450C05C
:103DB0008130D1F4780122E0E20EF11CC6010E94AC
:103DC000B9338A83882309F443C09FEF980F933057
:103DD000F8F4680183E0C80ED11CC7010E94B93312
:103DE0008B838823A9F11C8260E0CE0101960E949A
:103DF00088238601D1CF011584E0180749F1C80155
:103E00000E94B9330F5F1F4F8111F5CFFA94B9CFDC
:103E10008430B9F402E010E0C701AFEFEA1AFA0A01
:103E20000E94B933E1E0F0E0EC0FFD1FE00FF11F5D
:103E30008083882369F08C3731F4FE01E00FF11F95
:103E400012826701D1CF0F5F1F4F0730110521F795
:103E50002896E8E00C94F332CF93DF93EB018631A0
:103E60009C4719F50E94710C9D819923A1F08A7AD3
:103E700091E0811101C090E09093DA02882349F02B
:103E800085E30E94EB270E94040D80E0DF91CF9133
:103E9000089589E2F6CF8091DA02882321F085E344
:103EA0000E94F327F0CF89E2FBCF81E0EFCFCF93E1
:103EB000DF93EC01FB018581882309F4D2C09E01C8
:103EC00030572332310508F0B2C00E94850D90931F
:103ED000FE028093FD02FE01E150F047E232F1055F
:103EE00020F4ED5AFB4C0C948F328091FD028160DE
:103EF0008093FD0293C08091FE0288608093FE0251
:103F00008DC08091FD028260F3CF8091FD028460BC
:103F1000EFCF8091FD028860EBCF8091FE0281603F
:103F2000EDCF8091FE028260E9CF8091FD02806139
:103F3000DFCF8091FD028062DBCF8091FD02806443
:103F4000D7CF0E9406088091FD028068D1CF809172
:103F5000FD028C60CDCF8091FE028360CFCF809137
:103F6000FD028E7FC5CF8091FE02877FC7CF8091F3
:103F7000FD028D7FBDCF8091FD028B7FB9CF8091F7
:103F8000FD02877FB5CF8091FE028E7FB7CF8091F3
:103F9000FE028D7FB3CF8091FD028F7EA9CF8091ED
:103FA000FD028F7DA5CF8091FD028F7BA1CF0E9466
:103FB00006088091FD028F779BCF8091FD02837F61
:103FC00097CF8091FE028C7F99CF8091FD0282FB7A
:103FD000992790F921E0922790FB82F990FB83F9D1
:103FE00087CF8091FE02982F909591708E7F892BBC
:103FF00090FB81F983CF9091FD02892F8F7B96FFF3
:10400000806476CF0E9406089091FD02892F97FB6D
:1040100087F980586DCF81E00E94150E8091FD02D6
:104020009091FE020E948A0D0E94060880E0DF91B6
:10403000CF91089580E0F0CF9091FD02892F8F7E7F
:1040400094FF806155CF9091FD02892F8E7F90FF64
:1040500081604ECF9091FE02892F877F93FF886009
:104060004DCF81E0E4CF282F35EB2303C00111248D
:1040700097FF04C080589109892F089580589F4F59
:10408000FBCF8091E10280FF0DC06091200170E0C4
:10409000660F771F60387105C0F561157105B9F1BC
:1040A000862F089581FF07C06091200184E0689FFA
:1040B000B0011124EFCF82FF04C06091200188E09D
:1040C000F6CF8091E0028823E9F090911F01609182
:1040D000200170E0891730F093E0660F771F9A9502
:1040E000E1F7D8CF869F9001879F300D112483E0A0
:1040F000220F331F8A95E1F7692F70E0C9010E94F2
:104100005932C8CF68E070E0CBCF8FE7089581E0E7
:1041100008958091E10280FF0CC060911C0170E065
:1041200075956795759567956115710561F1862F90
:10413000089581FF06C060911C0170E07595679538
:10414000F3CF60911C0170E082FD15C02091DF0269
:104150002223B1F090911B0160911C0170E029179E
:1041600050F4269FA001279F500D1124692F70E065
:10417000CA010E94593260387105B0F28FE7089584
:1041800061E070E0D4CF81E008959091E402209145
:10419000E502922B2091E702922B2091E602922BCE
:1041A000992331F098E09093E00291E09093DF0240
:1041B0008D3C31F40E94412081958093E502089561
:1041C000E2E3E80FE231B0F5F0E0EB58FB4C0C9481
:1041D0008F320E944120F1CF0E944120819580932F
:1041E000E40208950E944120FACF0E948920809322
:1041F000E60208950E9489208195F9CF0E948920C6
:1042000081958093E70208950E948920FACF815D0D
:10421000990B21E030E001C0220F8A95EAF78091E6
:10422000E302822B8093E30208958091E102816092
:104230008093E10208958091E1028260F9CF80913C
:10424000E1028460F5CF4091E4028D3C59F4809105
:10425000E50287FF0DC01092E502442359F4109245
:10426000E00208C08E3C81F48091E50218169CF3B0
:10427000442381F08091E6029091E702892B81111D
:1042800059C01092DF0208958F3C41F447FFF0CFF0
:104290001092E4028091E5028823E0CF803D19F47A
:1042A0001416B4F3E5CF9091E602893D29F419166E
:1042B000FCF61092E602DCCF8A3D19F497FFD8CFC6
:1042C000F8CF9091E7028B3D29F497FFD1CF109260
:1042D000E702CECF8C3D19F41916CCF3C9CF9FE27B
:1042E000980F983090F4815D990B21E030E0B9018E
:1042F00002C0660F771F8A95E2F7CB0180959091F7
:10430000E30289238093E302B3CF8D3D31F48091A2
:10431000E1028E7F8093E102ABCF8E3D21F480914C
:10432000E1028D7FF7CF8F3D09F0A2CF8091E102AE
:104330008B7FF0CF08950E94D5282091E402309120
:10434000E502232B222321F08093DD029093DE02ED
:104350002091E6023091E702232B222321F0809363
:10436000DB029093DC0282EE92E00E943F270895E8
:1043700086E0E2EEF2E0DF011D928A95E9F7109205
:10438000E0021092DF021092E1020895A6E0B0E090
:10439000ECECF1E20C94DD3286E0E2EEF2E0DE01DC
:1043A000119601900D928A95E1F729813A814B810E
:1043B0005C816D817E8180E090E02696E2E00C9445
:1043C000F932FC01828181110DC0838181110AC003
:1043D0008481811107C081E09581911101C080E045
:1043E0008170089581E0FCCFA6E0B0E0EAEFF1E251
:1043F0000C94DA3286E0E2EEF2E09E012F5F3F4F4E
:10440000D90101900D928A95E1F71092E402109281
:10441000E5021092E6021092E7028B819C81892BC3
:104420008901882391F08091DD029091DE020E9443
:10443000FE289C018091E0028823C9F1409121016E
:1044400050E04217530708F43FC08D819E81892BAD
:10445000882399F08091DB029091DC020E94FE2873
:104460009C018091DF02882309F467C040911D01FF
:1044700050E04217530708F46EC0B80182EE92E094
:104480000E940628811105C082EE92E00E94E1217F
:1044900081110E949B2186E0F801A2EEB2E001901A
:1044A0000D928A95E1F72696E5E00C94F63240915C
:1044B00022019AE0499FA00111244217530728F6D0
:1044C0008F5F8093E00202C08F3FD1F7FB80FF2017
:1044D00059F00E94412091E01F140CF09FEF899F3A
:1044E000802D11248093E402FC80FF2059F00E946B
:1044F000412091E01F140CF09FEF899F802D112423
:104500008093E5028091E402882309F49ECFF09025
:10451000E502FF2009F499CF0E943320811101C0E8
:1045200081E08093E4028F2D0E943320882319F0CC
:104530008093E5028ACF81E0FBCF40911E019AE093
:10454000499FA00111244217530708F096CF8F5FAF
:104550008093DF0202C08F3FD1F7FD80FF2059F02A
:104560000E94892091E01F140CF09FEF899F802DFD
:1045700011248093E602FE80FF2059F00E948920DA
:1045800091E01F140CF09FEF899F802D11248093E0
:10459000E7028091E602882309F46FCFF090E702EA
:1045A000FF2009F46ACF0E943320811101C081E00D
:1045B0008093E6028F2D0E943320882319F0809388
:1045C000E7025BCF81E0FBCFA0E0B0E0EAEEF2E2F1
:1045D0000C94D632E82FF0E0EA5AFB4FB490282F23
:1045E00026952695269530E0F901EA50FB4F049177
:1045F000877010E0082E02C0159507950A94E2F71F
:1046000001701127F901EA51FB4FE490F12C082EBB
:1046100002C0F594E7940A94E2F791E0E922FF24BE
:10462000F901EA52FB4FC491D0E002C0D595C7957D
:104630008A95E2F7C170DD27C62ED12C0115110530
:1046400049F5E114F10431F086EE0E941405C6012B
:10465000009771F5B6018B2D0E948F05C60100975A
:1046600079F5E114F104A1F50115110531F081EEA0
:104670000E945C05C6010097C9F5CD2B31F08CE294
:104680000E94A705C114D104C9F5CDB7DEB7E9E092
:104690000C94F23281EE0E941405C601009789F253
:1046A000EFE9FFE03197F1F700C000000197F6CF86
:1046B000EFE9FFE03197F1F700C000000197C8CFA4
:1046C000EFE9FFE03197F1F700C000000197C7CF95
:1046D00086EE0E945C05C601009731F2EFE9FFE02B
:1046E0003197F1F700C000000197F6CFEFE9FFE046
:1046F0003197F1F700C000000197BDCF8FE99FE02F
:104700000197F1F700C0000091E0C91AD108BACFB3
:10471000EF92FF921F93CF93DF93EC01162F8881C6
:10472000882309F45AC0813009F053C0898181304F
:1047300071F47E0182E0E80EF11C8A810E94A705D7
:10474000E701812F90E00097E1F52196E8CF8230D4
:1047500041F47E01E2E0EE0EF11C8A810E94140514
:10476000EFCF833041F47E01F2E0EF0EF11C8A813D
:104770000E945C05E5CF843011F02196E2CF2A81BA
:10478000229680E090E06AE0AE014F5F5F4F2053D9
:10479000330B2A30310550F0009799F2EFE9FFE032
:1047A0003197F1F700C000000197F6CF689FF00144
:1047B000699FF00D1124C9018E0F9F1F2981EA0105
:1047C000E3CFEFE9FFE03197F1F700C00000019778
:1047D000BACF612F0E94E422B8CFDF91CF911F9111
:1047E000FF90EF9008950F931F93CF93DF93C42F03
:1047F000D22FFC0185818823C9F04093EA020E94F0
:10480000D5289093E9028093E80280E28C0F8830EB
:1048100040F4C77081E001C0880FCA95EAF70E9492
:10482000B005DF91CF911F910F9108951091EA0289
:1048300014133CC08091E8029091E9020E94FE2886
:10484000883C910598F5C0E2CD0F1D1741F180E23B
:10485000810F883040F4177081E001C0880F1A95ED
:10486000EAF70E94B705C83020F0802F0E94A70504
:10487000D8CF91E08D2F877001C0990F8A95EAF704
:10488000892F0E94B005802F0E94A705D77081E074
:1048900001C0880FDA95EAF70E94B705C2CF802FD2
:1048A0000E94A705C83008F0BCCFF0CF80E28C0F83
:1048B000883008F0B6CFC77081E001C0880FCA9574
:1048C000EAF7EACF0F93FC01CB01E851FC47E73050
:1048D000F10590F5E957FB4C0C948F3206E221EE7E
:1048E00041EE6AE17CE70E94F32380E00F91089596
:1048F00007E225EE45EE6BE17CE7F5CF06E221EE1F
:1049000040EE68E17CE7EFCF07E225EE44EE69E197
:104910007CE7E9CF06E221EE42EE6CE17CE7E3CFF3
:1049200007E225EE46EE6DE17CE7DDCF08E221E00F
:1049300045EE6EE17CE7D7CFFB01858181111092B6
:10494000EA0281E0D3CFCF93DF939C01FB012737AD
:104950008CE7380739F028373C47F1F081E0DF91E8
:10496000CF9108958581882391F00E94D5240E94DB
:1049700080080E94DB24D82F0E94D824C82F0E94D0
:10498000D5244D2F6C2F0E94B20980E0E8CF0E9401
:10499000D5240E948C08EDCF8581882319F00E94D0
:1049A000D824E5CF0E94D824F4CF80912501089522
:1049B00080912401089580912301089585E290E07B
:1049C0000E94B933843289F486E290E00E94B933C0
:1049D000843059F487E290E00E94B93391E080324C
:1049E00009F090E0892F8170089580E0FCCF882342
:1049F00081F064E285E290E00E94DD3364E086E2CB
:104A000090E00E94DD3360E287E290E00E94DD33B7
:104A100008956FEF85E290E00E94DD336FEF86E24C
:104A200090E00E94DD336FEFEFCF0895A4E0B0E097
:104A3000ECE1F5E20C94DD3288E290E00E94B933BB
:104A4000282F30E040E050E0CA01B9012496E2E0AE
:104A50000C94F9320895CF93C62F0E942A256C2F0B
:104A600088E290E00E94DD33CF91089580E00E94BB
:104A7000F72460E070E0CB010E942B250E94E91D25
:104A80000E949E1E81E00E94F72408950E94152531
:104A90000E9416250E942A250E94DE24811102C050
:104AA0000E94362508950E94031C08959C01FB0175
:104AB0008581882351F0A90157574038510530F4BA
:104AC000822F0E94AE1E80E0089581E008952FEFAE
:104AD000FC012083089580E00895CF93DF93EC01DB
:104AE00088818330F1F038F4813071F0823081F0C8
:104AF000DF91CF9108958430D9F70E948E16898373
:104B00000E9491168A83F4CF0E9494168983F0CF75
:104B10000E942D16882319F00E942416F7CF80E0FA
:104B2000F5CF0E947116F2CFCF93DF93EC0188810D
:104B3000833039F138F4813069F08230B1F0DF919F
:104B4000CF9108958430D9F70E949416482F6A8136
:104B5000898108C0D9810E949116C82F0E948E16A3
:104B60004D2F6C2F0E943918EACF8981811103C023
:104B70000E94081BE4CF0E94F91B89810E94B91B87
:104B8000DECF89810E948A16DACFFC019C012E5F5C
:104B90003F4F9081983041F0993051F0973059F45F
:104BA000C9010E9494250895C9010E946D250895A8
:104BB0000E94031608958FEF80830895FC012181E0
:104BC000223019F40E94C52508950E946725089592
:104BD000CF92DF92FF920F931F93CF93DF93CDB7C6
:104BE000DEB72E970FB6F894DEBF0FBECDBF8D8314
:104BF0009E83F62E8D819E810E946B25811115C0AA
:104C0000AD81BE81EC91E150E33140F5F0E0E25737
:104C1000FB4C0C948F32ED81FE8111828CE08283FB
:104C20006F2D8D819E810E94602B2E960FB6F89479
:104C3000DEBF0FBECDBFDF91CF911F910F91FF90CF
:104C4000DF90CF900895AD81BE8111968C91833015
:104C500099F148F4813081F08230E9F08FEFAD8135
:104C6000BE818C93DDCF8430C9F7ED81FE81128245
:104C7000138214821582D4CF0E94E1280E949532BB
:104C80006F83788789879A87ED81FE81628373833A
:104C900084839583C5CF0E9416250E9495326B8729
:104CA0007C878D879E87AD81BE8112966D937D93A3
:104CB0008D939C931597B4CFED81FE81028110E016
:104CC0006F01B2E0CB0ED11C053011050CF0A8CF5E
:104CD000802F0E945811D60111969C93119712961D
:104CE0008C930F5F1F4FEDCFED81FE81818182306C
:104CF00049F0853009F0B2CFED81FE8182810E94BA
:104D000053258ECFAD81BE8112968D919D910D90D0
:104D1000BC91A02D89839A83AB83BC83BC01CD0158
:104D20000E9495320E942B257BCFAD81BE811396C8
:104D30004C91139712966C91129711968C910E9438
:104D4000AB1D982789279827ED81FE819583848361
:104D500067CFAD81BE8114962D913C911597322776
:104D60002327322713964C91139712966C91129722
:104D700011968C910E94CD1D53CF0E94E91D50CFFA
:104D80006F2D8D819E810E94DE254ACF0E94561E86
:104D9000ED81FE81818344CF0E94581E9827892788
:104DA0009827AD81BE8112969C938E93119738CF30
:104DB000ED81FE81638170E081819281AF014C5F62
:104DC0005F4F9827892798270E945B1E29CFAD81C6
:104DD000BE8113966C91139770E011968D919C9102
:104DE0001297AD014C5F5F4F9827892798270E9443
:104DF0007D1E16CF0E949E1E13CF0E94991DC8CF04
:104E0000AD81BE8113966C91139770E011968D91D0
:104E10009C911297AD014C5F5F4F98278927982787
:104E20000E94091EFDCEED81FE81638170E08181CB
:104E30009281AF014C5F5F4F9827892798270E9486
:104E40002A1EEECE9093F0028093EF020895E09137
:104E5000EF02F091F002309729F00190F081E02DFF
:104E60000995089580E00895E091EF02F091F00235
:104E7000309721F00280F381E02D09950895DC013F
:104E8000E091EF02F091F002309739F082E08C93DC
:104E90000680F781E02DCD0109950895A3E0B0E0EB
:104EA000E4E5F7E20C94DD329C018091ED029091F3
:104EB000EE0282179307A1F03093EE022093ED02E9
:104EC000E091EF02F091F002309751F083E0898396
:104ED0003B832A830084F185E02DCE01019609955C
:104EE0002396E2E00C94F932A3E0B0E0EAE7F7E2BF
:104EF0000C94DD329C018091EB029091EC028217C0
:104F00009307A1F03093EC022093EB02E091EF02C3
:104F1000F091F002309751F084E089833B832A833B
:104F20000084F185E02DCE01019609952396E2E0FB
:104F30000C94F93240910401509105019A012E5FC1
:104F40003F4F485F5F4F80E0F90190812F5F3F4FF7
:104F500091118F5F42175307B9F70895882371F0B5
:104F60002091040130910501F9013296285F3F4FED
:104F70009191981729F0E217F307D1F780E008958F
:104F800081E008959C01FC0132968FEF90E0419101
:104F9000461751F08F3F19F4411101C0892F9F5FCF
:104FA0009630A9F78F3F09F40895280F311D87FD2A
:104FB0003A95F901628308959C01FC013296285FBD
:104FC0003F4F8191861303C0DF0111971C92E217B6
:104FD000F307B9F70895682F8091040190910501B6
:104FE0000E94C2270895682F8091040190910501C5
:104FF0000E94DC270895E0910401F09105013296AA
:1050000086E0DF011D928A95E9F70895DC01FB0136
:1050100011969C9111978181981322C012968C91C0
:105020001297882319F0928189131AC013968C91D4
:105030001397882319F09381891312C015968C91C8
:105040001597882319F0958189130AC014969C91AD
:10505000992321F081E02481291303C080E001C05D
:1050600081E08170089508950E94332808958F5F2C
:105070008093F1020E943428089583E08093F10226
:105080000E94342808950E943728089581E0809373
:10509000F1020E94342808950E9446280895089538
:1050A00008950E9450280895089508950E944F2859
:1050B0000895CF930E9454280E9421120E945528DF
:1050C000C0E08C2F0E945811892B31F4CF5FC5307E
:1050D000C1F780E0CF91089581E0FCCF85B780686B
:1050E00085BF85B7806885BF08951F921FB61F9240
:1050F00011248F939F93AF93BF938091F2028111FC
:1051000013C080913C0390913D03A0913E03B09168
:105110003F034196A11DB11D80933C0390933D0335
:10512000A0933E03B0933F03BF91AF919F918F91A6
:105130001F901FBE1F90189580914403843031F159
:105140000E9470041092F20288E190E020E40FB611
:10515000F894A895809360000FBE2093600083B7F9
:10516000817F846083BF83B7816083BF7894889593
:1051700083B78E7F83BF0FB6F894A89580916000A7
:10518000886180936000109260000FBE08950E94B5
:1051900006080E947904089582E084BD93E095BDDD
:1051A0009AEF97BD80936E0008952FB7F894809181
:1051B0003C0390913D03A0913E03B0913F032FBF6C
:1051C0000895A4E0B0E0E7EEF8E20C94DD328FB78A
:1051D000F89420913C0330913D0340913E0350915F
:1051E0003F0329833A834B835C838FBF69817A8134
:1051F0008B819C812496E2E00C94F9329C014FB79C
:10520000F89480913C0390913D03A0913E03B091AE
:105210003F034FBF821B930B089578941F921FB6D4
:105220001F9211248F939F93AF93BF9380913C0360
:1052300090913D03A0913E03B0913F030196A11DC3
:10524000B11D80933C0390933D03A0933E03B09324
:105250003F03BF91AF919F918F911F901FBE1F90F1
:10526000189587E797E7909301088093000888E1F5
:105270009AE00FB6F894A895809360000FBE9093C3
:105280006000FFCF88E19AE00FB6F894A89580936C
:1052900060000FBE90936000FFCFFF920F931F93AB
:1052A000CF93DF93182FEB011092BC0084EA809318
:1052B000BC000E94D528082FF92E8091BC0087FFE2
:1052C00028C08091B900887F883029F08091B9008A
:1052D000887F8031A1F51093BB0084E88093BC00E7
:1052E0000E94D528182F092F8091BC0087FF1FC06E
:1052F0002091B900287F80E090E0283199F081E08A
:1053000090E0203411F480E090E09195819591092E
:1053100009C0802F9F2D0E94FE28C817D90768F664
:105320008EEF9FEFCDB7DEB7E5E00C94F632812F1C
:10533000902F0E94FE28C817D907B0F6F1CF8FEF43
:105340009FEFF0CF1092B9008CE08093B8000895E1
:105350000F931F93CF93DF93EB018093BB0084E8FF
:105360008093BC000E94D528182F092F8091BC0083
:1053700087FF11C02091B900287F81E090E028329A
:1053800011F480E090E0919581959109DF91CF91A2
:105390001F910F910895CF3FDC0741F3812F902F8C
:1053A0000E94FE28C817D90708F78EEF9FEFEECFAF
:1053B0000F931F93CF93DF93EC0184EC8093BC0099
:1053C0000E94D528182F092F8091BC0087FF08C0A4
:1053D0008091BB0090E0DF91CF911F910F910895D4
:1053E000CF3FDC0789F3812F902F0E94FE28C8173A
:1053F000D90750F78EEF9FEFEECF0F931F93CF9308
:10540000DF93EC0184E88093BC000E94D528182F1C
:10541000092F8091BC0087FF08C08091BB0090E0FD
:10542000DF91CF911F910F910895CF3FDC0789F352
:10543000812F902F0E94FE28C817D90750F78EEFB2
:105440009FEFEECFA0E0B0E0E8E2FAE20C94D132B8
:10545000682E962E5A01690178010E94D528782E6F
:10546000892E0431110530F10F3F100731F1C801C9
:1054700064E170E00E944532162F072F612F702FD4
:10548000862D0E944D29EC0197FF19C0FFEFEF1602
:10549000FF06A1F3872D982D0E94FE28E816F90635
:1054A00068F784E98093BC00CE01CDB7DEB7EEE0AB
:1054B0000C94ED3211E000E0E1CF15E0FCCFB70134
:1054C000892D0E94A829EC018501CA0CDB1C0C1552
:1054D0001D0539F3D7FDE5CFB701F80181918F01A3
:1054E0000E94A829EC01F3CFA0E0B0E0EAE7FAE2DD
:1054F0000C94D132982E862E5A01690178010E94AF
:10550000D5283C010431110550F10F3F100751F12E
:10551000C80164E170E00E944532162F072F612F09
:10552000702F892D0E944D29EC0197FF1DC0FFEFC0
:10553000EF16FF06A1F3C3010E94FE28E816F90644
:1055400070F784E98093BC00CE011C161D0614F48C
:1055500080E090E0CDB7DEB7EEE00C94ED3211E0E4
:1055600000E0DDCF15E0FCCFB701882D0E94A8290F
:10557000EC0197FDE6CF689490F80E94D528782E2C
:10558000892E84E1E816F10490F1EFEFEE16FE06A5
:1055900089F1C70164E170E00E944532162F072FA0
:1055A000612F702F892D0E944D29EC0197FF0BC0B0
:1055B000FFEFEF16FF06A1F3872D982D0E94FE281E
:1055C000E816F90668F781E0C81AD1088601C11407
:1055D000D10491F4D7FDB5CFC7010E94FD29EC019C
:1055E00097FDAFCFAC0CBD1CF5018083AACF11E0B5
:1055F00000E0D6CF15E0FCCFD7FDA3CF812C912CB6
:105600003801C7010E94D829EC0197FD9ACFF50116
:10561000E80DF91D8083EFEF8E1A9E0A6301801654
:10562000910678F3D7CF8091FB0208950895282F33
:10563000CB01BA01309144033430E1F42F70209350
:10564000E9002FEF3091E80035FD07C035ED3A95C0
:10565000F1F7000021502111F5CF2091E80025FF3E
:1056600009C040E050E00E945A2D8091E8008E77FA
:105670008093E8000895BC0143E050E084E00E947C
:10568000172B0895BC0146E050E084E00E94172BE0
:105690000895CF93DF93D82FC92F48E050E0682FAB
:1056A000792F81E00E94172B88E0ED2FFC2FA3EFCC
:1056B000B2E001900D928A95E1F7DF91CF910895C4
:1056C000792F603231F440E250E0682F82E00E948E
:1056D000172B089580914303811109C00E94312F37
:1056E0000E948E2F8091E20084608093E2000895F2
:1056F0001092430308950E94462808956091400344
:1057000081E0611101C080E00E943D2808959091E0
:10571000440381E0943009F080E0609140030E94EE
:105720004328089542E061EC81E00E94AD2E42E200
:1057300061EC84E00E94AD2E42E261EC82E00E94C6
:10574000AD2E42E260EC83E00E94AD2E90914403C6
:1057500081E0943009F080E0609140030E94372896
:10576000089580914603893089F148F4823009F424
:10577000A1C0833009F45BC0813041F008958A30C4
:1057800009F488C08B3009F46DC0089580914503F9
:10579000813A09F04BC08091E800877F8093E80050
:1057A0008091490390914A03892B61F060E080E089
:1057B00090E070E00E94F82D8091E8008B77809354
:1057C000E800089568E083EF92E0F3CF809145030D
:1057D000813261F58091490390914A038D7F892B35
:1057E00029F58091E800877F8093E8008091E800A8
:1057F00082FF18C09091F3008091F200029731F47B
:105800008091F100813011F0863021F48091F10017
:105810008093FB028091E8008B778093E8000E94E0
:10582000E12E04C0809144038111E0CF089580915E
:105830004503813AD9F78091490390914A03892B16
:10584000A9F78091E800877F8093E8008091E800C5
:1058500080FFFCCF809130018093F1008091E800BF
:105860008E77DBCF80914503813201F78091490328
:1058700090914A03892BD1F68091E800877F80932D
:10588000E8000E94E12E80914703809330010E943E
:105890000608089580914503813241F68091E80021
:1058A000877F8093E8000E94E12E809148038093D7
:1058B000FC02089580914503813A09F0B7CF8091A9
:1058C000E800877F8093E8008091E80080FFFCCFAC
:1058D0008091FC02C1CF84B7877F84BF0FB6F89454
:1058E000A8958091600088618093600010926000AC
:1058F0000FBE80E890E00FB6F8948093610090931B
:1059000061000FBE0E944C2808950E94312F0E9412
:105910008E2FE2EEF0E080818460808378940E9494
:105920001132089586E291E00E9422270895809125
:105930004403853031F480914403853019F00E948E
:10594000C72808950E949C2880914203882399F3D8
:105950000E945928882379F30E94442D0E9406084A
:10596000EACFA0E2B0E0E7EBFCE20C94DD328091FC
:105970004403843081F483E08093E9008091E8005F
:1059800082FF09C08091E80085FD09C08091E80090
:105990008B778093E800A096E2E00C94F93240E027
:1059A00050E060E270E0CE0101960E94A92D809146
:1059B000E8008B778093E80060E2CE0101960E94B8
:1059C000E825E9CF9A0140914B0350914C030E9486
:1059D000EA2C0895AC01CB01D901252F33272330C0
:1059E000310521F168F42130310509F443C022303A
:1059F000310509F444C080E090E020E030E024C0AC
:105A00002132310551F122323105A9F78330910558
:105A100090F7FC01EE0FFF1FEC51FE4F208131810A
:105A20008F519E4FFC01808190E00EC0CA019927E2
:105A3000413069F08230910569F0E8E2F5E0892BA8
:105A4000D1F6849190E09F012D933C930895ECE171
:105A5000F5E0F7CFE6E0F5E0F4CF8330910558F6B6
:105A6000FC01EE0FFF1FE651FE4F2081318189E0DE
:105A700090E0EACF82E190E027E835E0E5CF8BE5E2
:105A800090E02CE235E0E0CF80E189BD82E189BD84
:105A900009B400FEFDCF8091D8008F7D8093D8009F
:105AA0008091E00082608093E0008091E00081FDC1
:105AB000FCCF0895AF92BF92CF92DF92FF920F93E7
:105AC0001F93CF93DF936C01EB018A010E94002F9B
:105AD000F82E811123C00115110539F0F8018081DC
