:100000000C943D030C945A030C945A030C945A0319
:100010000C945A030C945A030C945A030C945A03EC
:100020000C945A030C945A030C941E300C94F13027
:100030000C949B280C945A030C945A030C945A0366
:100040000C945A030C945A030C945A030C945A03BC
:100050000C945A030C9433290C945A030C945A03AD
:100060000C945A030C945A030C945A030C945A039C
:100070000C945A030C945A030C945A030C945A038C
:100080000C945A030C945A030C945A030C945A037C
:100090000C945A030C945A030C945A030C945A036C
:1000A0000C945A030C945A030C945A0314001A002B
:1000B0000800150017001C0018000C0012001300A7
:1000C00004001600070009000A000B000D000E00D6
:1000D0000F0033001D001B00060019000500110071
:1000E000100036003700380000000000E300E20096
:1000F0002C002C002C002C00000000000000000050
:100100000000407E0900417E000000000000000069
:1001100014001A000800150017001C0018000C003D
:100120001200130004001600070009000A000B006B
:100130000D000E000F0033001D001B00060019000B
:1001400005001100100036003700380000000000E4
:10015000E300E2002C002C002C002C00000000002A
:10016000000000000000070009000A000000000075
:100170000000000014001A000800150017001C0001
:1001800018000C00120013000400160007000900FC
:100190000A000B000D000E000F0033001D001B00B5
:1001A0000600190005001100100036003700380065
:1001B00000000000E300E2002C002C002C002C00CA
:1001C00000000000000000000000070009000A0015
:1001D000000000000000000014001A0008001500D4
:1001E00017001C0018000C00120013000400160079
:1001F000070009000A000B000D000E000F0033007D
:100200001D001B000600190005001100100036003B
:100210003700380000000000E300E2002C002C0052
:100220002C002C000000000000000000000007006F
:1002300009000A0000000000000000001E0F050079
:10024000047F3F1F643214643214783C1E1E140A6B
:10025000052223252628292A2C2D2F303233353606
:10026000383A3B3D3E4042434547494A4C4E505147
:10027000535557595A5C5E6062646668696B6D6F6E
:1002800071737577797B7D7F81838587898A8C8E71
:1002900090929496989A9C9E9FA1A3A5A7A8AAAC79
:1002A000AEAFB1B3B4B6B8B9BBBCBEBFC1C2C3C5B3
:1002B000C6C7C9CACBCCCDCED0D1D2D2D3D4D5D655
:1002C000D7D7D8D9D9DADADBDBDBDCDCDCDCDCDD88
:1002D000DDDDDDDCDCDCDCDCDBDBDBDADAD9D9D86C
:1002E000D7D7D6D5D4D3D2D2D1D0CECDCCCBCAC904
:1002F000C7C6C5C3C2C1BFBEBCBBB9B8B6B4B3B133
:10030000AFAEACAAA8A7A5A3A19F9E9C9A989694CD
:1003100092908E8C8A89878583817F7D7B797775A2
:1003200073716F6D6B6968666462605E5C5A595781
:10033000555351504E4C4A4947454342403E3D3B40
:100340003A3836353332302F2D2C2A2928262523CA
:1003500022FFAA7F554000010101010101010101B5
:100360000202020202020202020303030303030366
:100370000304040404040404050505050506060633
:100380000606070707070708080808090909090AF0
:100390000A0A0B0B0B0C0C0C0D0D0D0E0E0E0F0F95
:1003A0000F10101111111212131314141515161623
:1003B0001717181819191A1A1B1B1C1D1D1E1E1F92
:1003C0002020212222232424252626272829292AE1
:1003D0002B2C2D2D2E2F3031323233343536373809
:1003E000393A3B3C3D3E3F40414243444546474805
:1003F000494A4C4D4E4F50515354555658595A5BDB
:100400005D5E5F616264656668696B6C6D6F70727A
:10041000737577787A7B7D7E8082838587888A8CE6
:100420008E8F91939596989A9C9EA0A2A3A5A7A91A
:10043000ABADAFB1B3B5B7BABCBEC0C2C4C6C9CB11
:10044000CDCFD1D4D6D8DBDDDFE2E4E7E9EBEEF0C7
:10045000F3F5F8FAFDFF00000000000000002A2B71
:100460002800000000000000000000000000000064
:100470000029000000002C1E3420212224342627CD
:10048000252E362D3738271E1F20212223242526EE
:100490003333362E37381F0405060708090A0B0CBC
:1004A0000D0E0F101112131415161718191A1B1C04
:1004B0001D2F3130232D350405060708090A0B0CC2
:1004C0000D0E0F101112131415161718191A1B1CE4
:1004D0001D2F3130354C00000000000000000000EE
:1004E000000000000000000000000000000000000C
:1004F000000000000000000000007E0F00D4FFFF9D
:10050000FFC70000007814036F00720074006800D9
:1005100075006D0062003300390000000A037400AA
:1005200061006B00610000000403090409025B0024
:10053000030100A0FA0904000001030101000921E0
:10054000110100012244000705810308000109048C
:100550000100020300000009211101000122220014
:100560000705820320000107050303200001090499
:1005700002000103000000092111010001227B009B
:100580000705840320000112010002000000086B2F
:100590007439330001010200010660FF0961A10105
:1005A0000962150026FF0095207508810209631570
:1005B0000026FF00952075089102C005010902A1DF
:1005C0000185020901A10005091901290815002565
:1005D0000195087501810205010930093115812550
:1005E0007F95027508810609381581257F9501756B
:1005F000088106050C0A38021581257F95017508CA
:100600008106C0C005010980A101850319012AB72F
:1006100000150126B700950175108100C0050C0971
:1006200001A101850419012AA002150126A0029545
:100630000175108100C005010906A101050719E037
:1006400029E71500250195087501810295017508B6
:1006500081010507190029FF150026FF0095067581
:100660000881000508190129051500250195057562
:10067000019102950175039101C011241FBECFEFB6
:10068000DAE0DEBFCDBF11E0A0E0B1E0E8E3FAE6DA
:1006900002C005900D92A03FB107D9F723E0A0EF6B
:1006A000B1E001C01D92AD34B207E1F70E94D5124E
:1006B0000C94A1340C9400009C0120348EE7380780
:1006C00029F021343E4739F081E0089580E89EE327
:1006D0000E948B14F9CF80E09DE7FACFA2E0B0E052
:1006E000E4E7F3E00C944E3381E990E09A83898348
:1006F00024E630E042E050E0BE016F5F7F4F84E1CE
:100700000E94482A2296E2E00C946A338430B8F4BE
:100710006530A8F44A3098F4E42FF0E09AE0699F3D
:10072000E00DF11D112492E3899FE00DF11D1124CC
:10073000EE0FFF1FE455FF4F85919491089581E0DE
:1007400090E0089581E008950E94A203089581E059
:1007500008950E945C03089508950E94AC030895D3
:10076000A6E0B0E0E6EBF3E00C944D3349835A8306
:100770009E833091F70189819A8131111AC03E819F
:10078000332399F0222389F00E945D09182F682FE6
:1007900089819A810E94390969817A81812F0E9419
:1007A00071102696E3E00C9469330E944B09182FD0
:1007B000F3CF0E945D0969817A81F1CFFC01262F78
:1007C0004081518162817381848195810E94B0034F
:1007D0000895CF93DF93D82FC92F61E00E94DE03E5
:1007E0006D2F7C2F0E94A403DF91CF910895CF93AA
:1007F000DF93D82FC92F60E00E94DE036D2F7C2F7E
:100800000E94AD03DF91CF91089581E008950E9489
:1008100005040895CF93C82F0E942D088C2F0E94A5
:1008200007042FEF84E39CE0215080409040E1F7E3
:1008300000C00000CF91089581E00E940A040E9448
:100840005729089580E00E940A040E9468290895AB
:100850000F931F93CF93DF938C0161E00E94DE031F
:10086000EC01F801858181110E94DE1CB801CE01E6
:100870000E947C25882309F449C0B801CE010E945A
:10088000A903882309F442C0B801CE010E9488243C
:100890008823E1F1B801CE010E947D1F8823B1F1C8
:1008A000B801CE010E94521F882381F1B801CE0108
:1008B0000E94FE1C882351F1B801CE010E94C92478
:1008C000882321F1F8018581882381F0CA35FCE76E
:1008D000DF0739F178F4C130ECE7DE07F9F0C33017
:1008E000FCE7DF07C9F0C115DC4771F0C8010E94C1
:1008F000A7030DC0CB35ECE7DE07B1F0CC35DC4704
:10090000A9F70E947D0DF2CF0E941C0480E0DF91C8
:10091000CF911F910F9108950E948F0D0E94220484
:10092000F5CF0E94870DE2CF0E948B0DDFCF0E9492
:1009300077280E94C4040E94381B0E947C130895EB
:100940000E94C8040E94331C0E947C2808950895C8
:1009500081E008950895CF93DF93D82F0E94A804D3
:10096000C82F882319F08D2F0E94AA048C2FDF91A5
:10097000CF9108950895CF93C82F0E94A7048C2F7C
:100980000E94AB04CF91089580E00E94BB040895BB
:100990000E944D270E94BB040895CF930E944D27CB
:1009A000C82F8091F2018C1779F0C093F2010E9458
:1009B00007296093F3017093F4018093F5019093FC
:1009C000F6018C2F0E94BB04CF910895ADE0B0E0FA
:1009D000ECEEF4E00C944E33488759876A877B87A6
:1009E0008C879D8791110E94BA0C1F8286E0FE01C0
:1009F0003896DE01119601900D928A95E1F78D816E
:100A000081110DC029813A814B815C816D817E818C
:100A10008F810E94000C2D96E2E00C946A33CE0187
:100A200001960E94E9038111EDCFF5CFFC0184818D
:100A3000813021F4808191810E9486090895CF93AD
:100A4000DF93C82FD62F662381F00E94EB208C2FD6
:100A500090E09C01215D31092830310548F46D2F6B
:100A60000E94D213DF91CF9108950E944921EFCFC8
:100A70000E94C121F7CFCF93C82F882399F08CEF24
:100A80008C0F813A88F48C2F0E94D427882329F078
:100A90008C2F0E9419280E942B0D8C2F0E94112848
:100AA0000E942B0DCF91089580E28C0F883048F47E
:100AB000C77081E001C0880FCA95EAF70E949B0CBD
:100AC000EFCF8BE58C0F833038F42C2F2452330B6F
:100AD000C9010E947427E6CFE8E5EC0FEB3150F432
:100AE000F0E0EE0FFF1FEF5CFE4F808191810E94CE
:100AF0009A27D8CF83E38C0F8331A0F661E08C2F47
:100B00000E941F05CFCF882381F19CEF980F913A67
:100B100028F40E9419280E942B0D089590E2980F46
:100B2000983050F4877091E001C0990F8A95EAF7E8
:100B3000892F0E94A10CEFCF9BE5980F933028F4EA
:100B400080E090E00E947427089598E5980F9B310B
:100B500028F480E090E00E949A27089593E3980F8C
:100B6000933118F460E00E941F0508951F93CF93FE
:100B7000DF93182FEB010E943B05209739F4812F5A
:100B80000E948305DF91CF911F9108958FE99FE027
:100B90000197F1F700C000002197EFCF60E070E00F
:100BA000893311F460E570E00E94B605089588234A
:100BB00021F00E949B0C0E942B0D0895882321F0A8
:100BC0000E94A10C0E942B0D0895A0E0B0E0EBEE76
:100BD000F5E00C9448336C01D62FC72FFC0115812A
:100BE000068102950F700E94900CE82E8823F9F080
:100BF000E12E1123E1F08C2F807F803461F080E2C0
:100C00008D0F8830F0F08C2F807E803221F4D2302E
:100C1000C0F00023B1F08091FE0282FF12C082E09A
:100C20000E94500D0E94900C91E0E82EE926EC2FD6
:100C3000E295EF70C03CB0F5F0E0ED55FB4C0C9444
:100C40000033E12CF4CF0C2F0F70C03110F002955F
:100C5000007F112399F0002359F080E28D0F883036
:100C600010F0D11107C0802F0E949B0C0E942B0D09
:100C70008D2F51C0802F0E94AC0CF8CF8D2F0E9479
:100C80008305002379F080E28D0F883010F0D111B8
:100C900004C0802F0E94A10C03C0802F0E94B20CC0
:100CA0000E942B0DEE2089F00E948C0C80FD0DC05F
:100CB000F60115820E94860C0E94A708C6010E94B8
:100CC000F4070E94860C0E94B308CDB7DEB7E8E0B7
:100CD0000C946433FC2FFF70FF2EC07FC03219F0DC
:100CE000F29480EFF822DD2341F0D130D1F11123CD
:100CF00009F444C00023F1F0BBCF8091FE0282FDD5
:100D000015C0112359F0FF2029F08F2D0E949B0C54
:100D10000E942B0D80E00E943B05C4CF80E00E9422
:100D20008305FF2009F4BECF8F2DB4CF112369F0C6
:100D3000011104C08F2D0E94D705B4CF013009F0F6
:100D4000B1CF8F2D0E94D20CADCF0111ABCF8F2D23
:100D50000E94DE058F2D0E94DE0C8F2D0E94C10C9B
:100D6000A1CF112321F0063008F09CCFE3CF05304E
:100D700008F098CF8F2D0E94DE0594CF0023D1F389
:100D8000D93349F42FEF87EE93E021508040904013
:100D9000E1F700C000008D2F0E94830583CF8C2FC8
:100DA000869586958370882369F0813009F07ACF23
:100DB0008D2F9C2F9370111102C080E090E00E9453
:100DC0009A2770CF8D2F9C2F9370111102C080E055
:100DD00090E00E94742766CF612F8D2F0E941F051F
:100DE00061CF8C2F8370811134C0111124C04D2F1D
:100DF000429546954770440F440F8D2F8F70042EF7
:100E000001C0880F0A94EAF7D071DD2341F02FE08A
:100E100030E001C0220F4A95EAF7D22FD095C6954F
:100E2000C695C3708D2BC23071F0C33079F0C130DC
:100E300039F00E9483080E944D270E94BB0432CFE4
:100E40000E947D08F8CF0E948908F5CF0E947A0899
:100E5000F2CF112339F1C0FFEECF4D2F42954695C9
:100E60004770440F440F8D2F8F70042E01C0880FE0
:100E70000A94EAF7D071DD2341F02FE030E001C0A1
:100E8000220F4A95EAF7D22FD095C695C695C37022
:100E90008D2BC23069F0C33071F0C13031F00E9447
:100EA000D508C9CF823038F2D8CF0E94CF08C3CF3F
:100EB0000E94DB08C0CF0E949508BDCFCF701123E0
:100EC00039F08C2F0E94A7088D2F0E94D705B3CF31
:100ED0008D2F0E94DE058C2F0E94B308ACCFD23F2D
:100EE00031F170F4D03FB9F0D13FB1F1112309F4E1
:100EF00051C0002309F44BC08D2F0E943B059BCFAE
:100F0000D33FE1F0D43F21F11111F3CF011150C0D3
:100F10008C2F8F71E1CF112341F0053008F08BCF7A
:100F20008C2F8F710E94C30886CF0530F7CF8C2F8E
:100F30008F711111D1CF0E94A7087DCF112329F005
:100F40008C2F8F710E949E0876CF0E949A0873CFD3
:100F50008091FE0282FD06C08C2F8F71112309F44F
:100F6000BBCFE9CF112349F0CF718C2F0E94A70886
:100F700063E08C2F0E94320D5ECF81E00E94500D05
:100F8000023008F458CF82E00E94500D54CF8C2FCD
:100F90008F71D1CF002309F4BBCFD93349F4EFEFE0
:100FA000F7EE23E0E150F0402040E1F700C0000000
:100FB0008D2F0E9483053FCF0F931F93CF93DF9315
:100FC000EC01688179818D810E9493098C010E94D6
:100FD000E1080E947908B801CE010E94E505DF9181
:100FE000CF911F910F910895CF93DF93EC018C81E6
:100FF000882399F0CE010E942804811111C00E941B
:10100000900C882351F08D81882339F08091FE0265
:1010100082FF03C082E00E94500DDF91CF910895BE
:10102000CE010E94DC07CE010E94F703F6CF80E0DC
:1010300090E00E94742780E090E00E949A270E942E
:10104000BA0C0E942B0D0E94DE210E94C12108953E
:101050000E9421280E94170808950E94A90C0E944E
:1010600028080895282F92959F70963091F060F48B
:10107000925F9F70923030F481E0203F79F030F43D
:10108000283E30F080E008959A5FF3CF243FD1F7F7
:10109000089581E0283EE0F3213FF9CF0895FC0157
:1010A0008481882339F0808191810E9486090E9481
:1010B0003208089580E00895A6E0B0E0E2E6F8E0A6
:1010C0000C944E332696E2E00C946A33A7E0B0E02D
:1010D000ECE6F8E00C944E332796E2E00C946A3389
:1010E00008950E94700808950E94710880930E026E
:1010F000089508950E947408089590910E02892B16
:101100000E947408089590910E0289230E94740829
:10111000089590910E0289270E94740808950E94F4
:10112000700808950E948F0808950E949208809385
:101130000D02089580E00E949508089591E001C095
:10114000990F8A95EAF7892F0E949508089521E062
:1011500030E001C0220F8A95EAF780910D02822BC0
:101160000E949508089521E030E0A90102C0440FD3
:10117000551F8A95E2F7CA01809590910D02892347
:101180000E949508089521E030E001C0220F8A9561
:10119000EAF780910D0282270E94950808959091A8
:1011A0000D02892B0E949508089590910D028923C4
:1011B0000E949508089590910D0289270E94950834
:1011C000089508959B01677091E001C0990F6A9599
:1011D000EAF763E0369527956A95E1F7B901660F5E
:1011E000771F260F371FFA01E20FF31F40E050E090
:1011F000682F70E08191DF0111979B01042E02C0DE
:10120000369527950A94E2F72170219528272923FE
:1012100028272C934F5F5F4F4330510559F70895AE
:101220009C01A82FA77083E0369527958A95E1F752
:10123000C901880F991F820F931FFB01E80FF91F47
:1012400040E050E080E0219130E00A2E02C0369567
:1012500027950A94E2F721703327042E01C0220F4C
:101260000A94EAF7822B4F5F5F4F4330510559F7DD
:101270000895282F862F953068F42A3058F4622F6D
:1012800070E02AE0929F600D711D112448EF51E03B
:101290000E94E2080895292F953068F48A3058F4A6
:1012A00090E068EF71E03AE0239F800D911D1124DA
:1012B0000E941009089580E00895A0E0B0E0E3E600
:1012C000F9E00C9449337C0100910D0280910E02EB
:1012D000082BC3E0D0E010E0C8010C2E02C09595A9
:1012E00087950A94E2F780FD09C02197A8F7D12CD1
:1012F0008D2DCDB7DEB7E7E00C946533DC2EB7015A
:101300008C2F0E947D10019781F3F2CFCF93DF9352
:10131000D82FC92F0E945D096D2F7C2F0E947D1050
:10132000DF91CF9108951F93CF93DF93162FD72F7F
:101330009091F701992341F0862F972F0E948609FB
:10134000DF91CF911F910895882381F0862F972FE9
:101350000E945D09C82F682F812F9D2F0E94390997
:10136000612F7D2F8C2F0E947D10EACF862F972F23
:101370000E944B09C82FF4CFE1E0F0E0DF0102C08A
:10138000AA0FBB1F6A95E2F7BD01DF0102C0AA0FD9
:10139000BB1F4A95E2F76A2B01C0EE0F2A95EAF7C8
:1013A000962F9823961302C08E2B0895E0958E23D6
:1013B0000895242F462F682F80910D020E94BC09AA
:1013C0000E94950808950F931F93CF93E0910F0209
:1013D000C7E0809110028E1304C0CF911F910F912E
:1013E00008950E2F10E0CE9FF0011124EF5EFD4F07
:1013F00020813181428153816481758186810E947F
:101400006608F8013196E770E4CF209149023091E7
:101410004A0240914B0250914C0260914D027091F2
:101420004E0280914F020E946608089580914F02FB
:10143000803178F480914E02882359F0E0910F02B8
:101440002091100230914A024091490257E02E1338
:1014500001C008956E2F70E05E9FF0011124DF013E
:10146000AF5EBD4F14968C911497882361F111964D
:101470008C911197831327C08C91841324C01596E7
:101480008C91159781111FC012968D919C91A091FE
:101490004B02B0914C028A1B9B0B883C910598F43F
:1014A00080914F028F70806180934F02E95EFD4F03
:1014B00080818F708061808389E492E00E94F407CC
:1014C0000E94E3090895FB013196E770C0CFE091D7
:1014D0000F029091100227E0E91302C080E0089506
:1014E000AE2FB0E02E9FF0011124EF5EFD4F318151
:1014F000361306C03081381303C03581341304C05D
:10150000FD013196E770E8CF81E008958F929F92B8
:10151000AF92BF92DF92EF92FF920F931F93CF9300
:10152000DF93CDB7DEB72D970FB6F894DEBF0FBEB1
:10153000CDBF8C0186E0F801DE01189601900D9276
:101540008A95E1F7F801E080F580A280B38084817C
:1015500099E4892E92E0992E90914D0291111BC031
:10156000882309F4FCC0FF2009F43DC1C8010E9492
:101570004F08882309F437C187E0F801D4010190AE
:101580000D928A95E1F7C4010E9416050E94160A81
:101590000E94050AE4C0D0904E0220914B02309187
:1015A0004C02A501421B530BDD2009F4DBC0483C73
:1015B000510508F0A6C0882309F4D1C090914A02D1
:1015C000918080914F02803108F06BC0991228C041
:1015D000909149029E1124C0F1105DC08F7080610E
:1015E00080934F020E94050A89E492E00E94F4076A
:1015F00080914F02F8018683F12C8F2D2D960FB626
:10160000F894DEBF0FBECDBFDF91CF911F910F9138
:10161000FF90EF90DF90BF90AF909F908F900895D4
:10162000F11039C040E0692D8E2D0E94670A40E01C
:10163000692D8E2D0E94670AF82E8111DDCF8885D5
:1016400099850E948609292F22952F70903450F495
:101650009F70223080F0992399F0F80196819031A3
:1016600078F4CBCF2A5F2F70223078F0C8010E9427
:10167000F407FD2CC2CF992319F0882309F4BDCFBC
:10168000805E883008F4B9CFF1CF803F08F4B5CF41
:10169000815F8230F7CF80914F02816080934F024B
:1016A000ABCF991207C0909149029E1103C0FF2051
:1016B00009F479C0C8010E944F08882309F493C037
:1016C000FF2009F490C080914F02803288F0209171
:1016D000490230914A023A832983BC82AB829091BD
:1016E0004D029D831E828F83CE0101960E94F407D6
:1016F00087E0F801A9E4B2E001900D928A95E1F744
:1017000045CF90914F029031A0F4488559856A8564
:101710007B858C859D850E945C0889E492E00E940F
:10172000F40787E0F40111928A95E9F70E94050A0F
:1017300063CF8823A1F020914A0281812813BACF78
:10174000809149028E11B6CFF110B4CF9683C801B3
:101750000E94F40787E0F40111928A95E9F7FF24CB
:10176000F3944BCF483C510508F041C08823B9F3AE
:10177000FF20C9F190914A02818198132AC080917B
:1017800049028E1126C080914F0280FD19C0803120
:10179000B8F08683807F803F39F08681982F907FD4
:1017A000905F8F70892B8683C8010E94F40787E0C1
:1017B000F801A9E4B2E001900D928A95E1F7E8CE34
:1017C00087E0F801A9E4B2E001900D928A95E1F773
:1017D000C6CFC8010E944F0881118ACF80914F0265
:1017E000816080934F02C8010E94F407B8CF4885FA
:1017F00059856A857B858C859D850E945C0891CF83
:10180000AEE0B0E0E6E0FCE00C944D332887398789
:101810004A875B876C877D878E87CE0108960E94FA
:10182000860A8823B1F06C85662341F028853985C6
:101830004A855B857D858E850E94660817E08091CC
:101840000F029091100289133EC02E96E3E00C9493
:10185000693387E0FE013896DE01119601900D9202
:101860008A95E1F72091100240910F028C85882320
:1018700029F330E0C90101968770992750E0841759
:10188000950799F097E0929FD001939FB00D112496
:10189000AF5EBD4FFE01319601900D929A95E1F732
:1018A000809310020E94E309C9CF0E942D08109274
:1018B000100210920F0287E0E9E4F2E0DF011D92CE
:1018C0008A95E9F7BBCF189FC00111248F5E9D4F09
:1018D0000E94860A882309F4B8CFE0910F021E9F68
:1018E000F0011124EF5EFD4F20813181428153814F
:1018F0006481758186810E94660880910F0290E064
:1019000001968770992780930F0299CF8091580292
:1019100086958695869508958091580287700895DA
:1019200090915802977081E0911101C080E0089574
:1019300080916402089590916402982B90936402C0
:101940000895982F90958091640289238093640272
:10195000089510926402089590916302982B9093D9
:1019600063020895982F9095809163028923809354
:101970006302089510926302089508950E94BD0CB9
:10198000089590915902292F2823222331F0809520
:101990008923809359020E94BE0C089508950E94E5
:1019A000CE0C089590915A02292F2823281729F048
:1019B000982B90935A020E94CF0C089590915A024E
:1019C000292F2823222331F08095892380935A02DE
:1019D0000E94CF0C089580915A02882329F010921A
:1019E0005A0280E00E94CF0C08950F931F93CF936B
:1019F000DF930091040110910501C0916402809170
:101A00006302C82BD0915A02DD2331F00E94C02717
:101A100081110E94EB0CCD2BF801C083C091040111
:101A2000D091050148E050E060E572E0CE010E94EF
:101A30001434892B59F088E0FE01A0E5B2E0019052
:101A40000D928A95E1F7CE010E945A27DF91CF913E
:101A50001F910F9108950E94F50C089508950E941A
:101A60002E0D08959091FE0292FF11C098E0899F7B
:101A700090011124622B609358020E94A708809164
:101A800058028695869586950E942F0D08950E948E
:101A9000A70808951092580280E00E942F0D089523
:101AA000909158028095892380935802282F27709F
:101AB00021110DC0891759F09091FE0292FF07C0C5
:101AC0008695869586950E94B3080E944A0D0895D2
:101AD0009091FE0292FB222720F9281769F080FBE3
:101AE00092F99093FE028091FD029091FE020E9475
:101AF000B10D82E00E94500D08958091FE0282FB9C
:101B0000882780F991E089270E94680D089581E077
:101B10000E94680D089580E00E94680D08956FEF9F
:101B20007FEF80E090E00E946C34089580E090E0C8
:101B30000E943834863E9E4F19F40E940425089571
:101B400080E0089582E090E00E942A34089583E0C6
:101B500090E00E942A34089584E090E00E94383496
:101B60000895BC0184E090E00E946C340895AB01BC
:101B7000BC018FE090E00E9460340895AB01BC018D
:101B800083E190E00E946034089560E070E0CB0152
:101B90000E94BE0D089560E070E0CB010E94B70D79
:101BA0000E94C50D0895A8E0B0E0E9EDFDE00C94B9
:101BB0004E3366EE7EEF80E090E00E946C3460E091
:101BC00082E090E00E944E3481E080930E0261E05A
:101BD00083E090E00E944E3460E074E184E090E0A5
:101BE0000E946C3460E086E090E00E944E3460E039
:101BF00087E090E00E944E3440E050E0BA0188E077
:101C000090E00E94603460E084E290E00E944E34F4
:101C100060E087E190E00E944E3460E08CE090E06C
:101C20000E944E3460E08DE090E00E944E341982B4
:101C30001A821B821C821D821E821F82188648E027
:101C400050E068E170E0CE0101960E943E3440E031
:101C500050E0BA0180E290E00E94603480E00E948F
:101C60001D250E945C250E94CB0D2896E2E00C9475
:101C70006A330E94D30D0895682F8EE090E00E9491
:101C80004E340895A6E0B0E0E8E4FEE00C944C3356
:101C90000E94FB288C01809165029091660280175A
:101CA000910779F019821A820E94FB28BC014981B0
:101CB0005A8180E090E00E94E6041093660200934F
:101CC00065022696E4E00C9468330E94072960932D
:101CD000790270937A0280937B0290937C026093E6
:101CE000750270937602809377029093780208953C
:101CF0000E9407296093790270937A0280937B0295
:101D000090937C02609371027093720280937302CD
:101D1000909374020895089508950E948B0E08957B
:101D200008950E94900E089585E791E10E94E212C5
:101D30000E948C0E0E948D0E089581E008950E94ED
:101D40009D0E08950E949D0E0895089508950E9485
:101D5000A50E0E94A60E08950E94960D811102C044
:101D60000E94390E0E94A20D80937D020E94AC0D4C
:101D70009093FE028093FD020E94BC1D0E94A70D5D
:101D80000E947A0880910D020E94920808950E9494
:101D9000F2280E946C250E9432120E94AC0E0E9412
:101DA000BA040E94E31B0E9427130E94910E08951B
:101DB000A6E0B0E0EEEDFEE00C9442330E949F0EF0
:101DC000811111C00E94420E0E94DF1C0E947C13F0
:101DD00081110E94780E0E941A220E94CD0426963C
:101DE000EEE00C945E330E94481227E6822E22E039
:101DF000922E640110E0F601E190F1906F01812FC5
:101E00000E947F111F5F153009F44DC0E816F906D6
:101E100091F380917D0281FD0E9488110E94A20EA3
:101E2000782EF12C662463948F2D0E947F118C01F3
:101E3000F401A190B1904F018A159B0569F1A82684
:101E4000B926E12CCC24C394D12CC5018C219D2131
:101E5000892BC1F07720B1F0E982FA820E94FB2839
:101E60009C838B836D8221E0C8018C219D21892B6D
:101E700009F420E049815A816B817C818D81922F08
:101E80000E94E604E394CC0CDD1CFAE0EF12DDCFF7
:101E9000F401329711830083F39485E0F812C4CFE4
:101EA0000E94650E91CFE816F90609F0B2CF8ACFED
:101EB0001F93CF93DF930E948210EC01811522E5DE
:101EC000920708F053C0811540E5940708F0DDC083
:101ED000803E9105F8F48D3C910508F0AEC0883A3B
:101EE000910580F4853A910508F099C081309105FB
:101EF00021F00497813A910550F4CE01DF91CF9102
:101F00001F910895885A91094B9708F48BC0C0E03F
:101F1000D0E0F3CF811550E49507F8F4C11580E2C5
:101F2000D80708F0CBC0C83ED10538F3CE019A954A
:101F300081159F4160F78D2F0E942611182FCE0129
:101F400099270E948210212F30E0322F2227E901A9
:101F5000CC27DF71C82BD92BD0CF99270E948210B4
:101F6000CC27DF70C82BD92BD06AC7CF803842E589
:101F70009407C8F5803652E5950708F067C0C0346D
:101F800082E5D807B0F08C2F86958695877020E281
:101F9000829FC0011124C37021E030E0A90102C07A
:101FA000440F551FCA95E2F7EA01C82BD92BDC680C
:101FB000A4CFC03252E5D50708F041C08C2F8695DA
:101FC000869520E2829FC0011124C37021E030E099
:101FD000A90102C0440F551FCA95E2F7EA01C82BB8
:101FE000D92BDD688ACF803C52E5950760F48F716C
:101FF000C03AD24508F03FC090E0982F8827EC0106
:10200000C46FD06A7ACF805C9245809708F07FCF0A
:10201000DC2FCC27CC27DF71C06FD06A6ECFA4979E
:10202000D0646BCFC85AD0E0CC0FDD1FC959DE4F4A
:102030000990D881C02DD46460CFD0655ECFCF71B8
:10204000D0E0DC2FCC27C16FD06A57CF869586951C
:10205000877020E2829FC0011124C37021E030E02C
:10206000A90102C0440F551FCA95E2F7EA01C82B27
:10207000D92BDA6842CF0E942611C82FD0E0DC2F7E
:10208000CC27CC27DF71D06238CF8F710E94261108
:1020900065E0D695C7956A95E1F7CF70D0E0DC2F63
:1020A000CC27282F30E084FF05C054E0220F331FD7
:1020B0005A95E1F7C22BD32BD0691FCF8D2F8F718B
:1020C0000E942611182FCE0199270E948210212FDD
:1020D00030E0322F222722273F71282B392BE901AC
:1020E000D2CF462F672F753028F44A3018F40E945B
:1020F000701E089580E090E008950E9471100E9483
:10210000580F0895803E9105D1F1C8F481339105AF
:1021100009F47FC048F48932910509F46FC08A320E
:10212000910509F47DC0089589339105E1F0823865
:102130009105C9F08533910509F45BC00895843E8B
:102140009105D1F148F4823E910531F1833E91052C
:1021500041F181EE90E00895863E9105C1F1873E00
:102160009105E1F108952091FD022370211165C0D0
:102170002091FE0223FF14C089E290E0089520918F
:10218000FD0220FD43C03091FE0230FF09C024FF54
:102190004EC080E090E008952091FD0222FDF7CF2F
:1021A00008952091FD0222FD45C03091FE0230FDD0
:1021B00044C024FFF5CFEDCF2091FE0221FFF0CFE8
:1021C0008091FD0284FDE5CF87EE90E00895209197
:1021D000FD0223FFE5CF24FDDCCFF6CF2091FD02E9
:1021E00023FD2EC03091FE0231FFE3CF84EE90E05C
:1021F00008952091FD0225FFD3CFBECF2091FD028F
:1022000025FD21C02091FE0223FFCACF89E390E083
:1022100008952091FD0226FFC3CF8AE290E0089541
:102220002091FD0226FFBCCF81E390E0089583EE6C
:1022300090E0089582EE90E0089580EE90E0089599
:1022400086EE90E0089585E390E0AACF9091FD029C
:1022500092FF10C041E0282F2471243009F040E0A3
:1022600031E0282F2871283009F030E0431711F0B1
:102270002CE0822793FF10C041E0282F24712431E5
:1022800009F040E031E0282F2871283109F030E0D2
:10229000431711F02CE082273091FE0230FF10C06E
:1022A00051E0282F2171213009F050E041E0282F22
:1022B0002871283009F040E0541711F029E08227F6
:1022C00031FF10C041E0282F2171213109F040E099
:1022D00031E0282F2871283109F030E0431711F040
:1022E00029E0822794FD877E089580E0089508956F
:1022F0000E947711089508950E947B110895E82F98
:10230000F0E0EE0FFF1FE75FFC4F808191810895A1
:10231000089580EA8A95F1F7089500C008950E9413
:1023200089110895F894E82FE295EF70F0E041A14B
:102330008F7021E030E0B90102C0660F771F8A95E7
:10234000E2F7CB01962F9095942391A392A1892B2C
:1023500082A3789408950F931F93CF93DF93C7EAD6
:10236000D1E089918F3F11F00E94921181E0CC3A27
:10237000D807B9F7CDE9D1E007EA11E089918F3F9D
:1023800011F00E9492110C171D07C1F7DF91CF9138
:102390001F910F910895A0E0B0E0E1EDF1E10C9400
:1023A0004733EC01B62E062F10E0C80189559E4F29
:1023B0007C01FC0180818F3F09F44FC0F894E82F25
:1023C000E295EF70F0E091A18F7021E030E001C064
:1023D000220F8A95EAF7892F822B81A382A120956B
:1023E000282322A378940E948D11EDE9F1E041E0C9
:1023F00050E0C12CD12C21912F3F89F0A22FA29522
:10240000AF70A05EB0E08C9190E02F7002C0959507
:1024100087952A95E2F781709A01882311F020E0D0
:1024200030E0C22AD32A440F551F81E0E73AF8076B
:1024300011F7F70180818F3F11F00E94921161E046
:10244000C114D10409F460E08B2D0E948F11000F9C
:10245000111FC00FD11FD982C882CDB7DEB7E9E006
:102460000C9463330E94AB118AE0E9E0F3E0DF01F2
:10247000982F1D929A95E9F7EFEFF2E0DF011D9298
:102480008A95E9F785E00E9485120E9478110895E7
:10249000AAE0B0E0EEE4F2E10C944B33FE01319699
:1024A0008AE0DF011D928A95E9F710E0FE2E0F2FDA
:1024B000612F8F2D902F0E94CB111F5F1530C1F718
:1024C0004AE050E06F2D702F8FEF92E00E9414349D
:1024D00021E0892B81F420E045E069E073E08FEF93
:1024E00092E00E948612182F0E947C11812F2A965A
:1024F000E5E00C9467338AE0EF2DF02FAFEFB2E008
:1025000001900D928A95E1F7E7CF0895A0E0B0E041
:10251000ECE8F2E10C944833D82EE92EF62ED72FB2
:10252000042FC22F222379F081E0809380020E9441
:10253000FB2890937F0280937E0280E0CDB7DEB7C8
:10254000E8E00C946433C0908002CC20B1F3809119
:102550007E0290917F020E942429059770F310E07B
:10256000000F111FA8016D2D7E2D8F2D9D2F0E9414
:102570001434892B41F0A8016D2D7E2D8F2D9D2FB8
:102580000E942134CC2D109280028C2FD7CF0E9434
:10259000F62C0E94C70E0E94032D08950E94082D5C
:1025A0000E94D80E0E94222D08950E9494280E9415
:1025B000DC2C0E94940E0E94C7120E94CE120E9430
:1025C000A70EFBCF9093F1018093F0010895089539
:1025D000ACE0B0E0EEEEF2E10C944E334F8358875E
:1025E00069877A878B879C8786E0FE013796DE01B4
:1025F000119601900D928A95E1F729813A814B81DC
:102600005C816D817E8180E090E02C96E2E00C940C
:102610006A33ACE0B0E0EFE0F3E10C944E330E949B
:10262000E81280E090E02C96E2E00C946A3321E01E
:1026300030E0F90102C0EE0FFF1F4A95E2F7AF014B
:10264000662311F08E2B0895409584230895E09120
:10265000AC01F091AD0109950E946E030E94E71252
:102660000895CF9361E872E088E892E00E942C28F8
:10267000C82F882321F088E892E00E946527909176
:10268000890286E0E8E8F2E0DF01282F1D922A9512
:10269000E9F790938902A1E8B2E001900D928A9542
:1026A000E1F781E0C11103C0911101C080E08170A8
:1026B000CF910895ACE0B0E0E0E6F3E10C944E3346
:1026C0004F8358878B879C87619579876A8786E0D7
:1026D000FE013796DE01119601900D928A95E1F781
:1026E00029813A814B815C816D817E8180E090E01F
:1026F0002C96E2E00C946A33A6E0B0E0E2E8F3E165
:102700000C944E33E091AE01F091AF0140918802FC
:102710005091890260918A0270918B0280918C02A3
:1027200090918D020995F42FE52FCB01A9016F2F10
:102730007E2F0E945A13F42FE52FCB01209388029D
:1027400030938902F0938A02E0938B0260938C02AB
:1027500090938D02A9016F2F7E2F0E940913209361
:1027600088023093890240938A0250938B026093CF
:102770008C0270938D020E94EC2180918902832B40
:10278000809389020E943113811109C080918702D0
:102790001092870281702696E2E00C946A3381E001
:1027A00090E0F6CFAC01815D9109089748F4415D56
:1027B000809189020E941713809389020E9431132D
:1027C0000895FC0180819181803891053CF09C0145
:1027D0002F5731098FE731832083089580382FEFF9
:1027E00092072CF49C0121583F4F80E8F4CF20E061
:1027F00030E0F1CFA1E1B0E0E0E0F4E10C944B3344
:102800004C87888B998B152FF62E072FCE010796B4
:1028100025E0FC0111922A95E9F7209194022A30D3
:1028200008F040C00E94BB14892B09F062C01092CE
:1028300094028B8540E087FD54C060E0812F0E94A8
:102840001713182F20919202309193022115310510
:1028500009F040C042E06F8188850E94D214209127
:10286000900230919102280F391F309391022093EA
:10287000900242E069858A850E94D21420918E02DE
:1028800030918F02280F391F30938F0220938E02D0
:1028900080E992E00E94E113F82E8EE892E00E9417
:1028A000E113082F1D87FE860F8786E0FE013C9608
:1028B000DE01119601900D928A95E1F729813A8106
:1028C0004B815C816D817E8180E090E06196E5E0E6
:1028D0000C94673321503109309393022093920274
:1028E000E1CF61E0812F0E941713182F24E130E01F
:1028F000F3CF909194029F5F90939402D3CF8091F5
:102900000601909107012DE7AC01249FC001259F8E
:10291000900D112408959C0161E070E0893F9105BC
:1029200060F0EDE7F0E0BF010E94B632A901481B5C
:10293000590BCA01BF010E94B63260930601709321
:1029400007010895A4E0B0E0E8EAF4E10C944C3308
:1029500089836A834B832C8304E610E024E030E013
:10296000AE014F5F5F4F60E084E10E94932A24969E
:10297000E4E00C9468330F931F93AC0104E610E07D
:1029800025E030E064E084E10E94E52A1F910F9188
:1029900008950E94C82920E040E060E080E00E94A5
:1029A000A214089550E020910601309107016817A4
:1029B000D8F4861B849FB001859F700D1124869FDB
:1029C000A001879F500D1124429FC001439F900D8D
:1029D000529F900D1124880F892F881F990B919574
:1029E0009195819591090895681B649FC001659F29
:1029F000900D1124689FA001699F500D1124429FE2
:102A0000C001439F900D529F900D1124880F892F74
:102A1000881F990B91950895A0E0B0E0E2E1F5E1FF
:102A20000C944633E82F71110DC0442321F0F0E0DF
:102A3000EA5AFC4F8491682F782FCDB7DEB7EAE0D1
:102A40000C946233262F30E0C72FD0E0F0E044230F
:102A500021F0EA5AFC4FE491F0E086E0829F700199
:102A6000839FF00C11240FEF10E0C701B8010E9402
:102A7000B632AB01220F331F65E5649FC001659F2D
:102A8000900D1124281B390BC22ECC0CC20EC8018C
:102A90008C1B9D0B8E9F90018F9F300D9E9F300D44
:102AA0001124832FCC9EB001CD9E700D1124672F71
:102AB00077275801A61AB70AAE9ED001AF9EB00D77
:102AC000BE9EB00D11247B2F5801AC18B1086501D2
:102AD000CC9E5001CD9EB00CDC9EB00C1124AB2CD2
:102AE000BB240A191B090E9FE0010F9FD00D1E9FEA
:102AF000D00D11246E2F43305105C9F09CEFE9161B
:102B000093E0F90650F44130510509F496CF423074
:102B1000510589F07E2F6D2F90CF4430510571F013
:102B200046305105B9F3632F8B2F7E2F86CF6B2F45
:102B3000732F8E2F82CF732F8D2F7FCF7D2F632FFB
:102B4000F8CF41E00E940C15089508950E94A11548
:102B50000895CF93DF93982F762F842FE901692F63
:102B60000E94A615798368838A83DF91CF910895A7
:102B700080911303843028F483708460809313035E
:102B800008958C3AE8F38370886AF8CF4F925F9289
:102B90006F927F928F929F92AF92BF92CF92DF926D
:102BA000EF92FF920F9388E090E00E9432342B0165
:102BB0003C0184E290E00E942A34282F30E040E07B
:102BC00050E060E070E080E090E000E20E94753349
:102BD00053014201C12CD12C7601242939294A29DB
:102BE0005B296C297D298E299F290F91FF90EF90F9
:102BF000DF90CF90BF90AF909F908F907F906F901D
:102C00005F904F900895A0E0B0E0E9E0F6E10C9409
:102C100048338901D42FC52F6B017C010E94B81560
:102C2000A8016D2F7C2F88E090E00E94603498010D
:102C30004D2F5C2FB601C70100E20E949033622F36
:102C400084E290E00E944E34CDB7DEB7E8E00C9409
:102C50006433E3E1F3E02081318142815381648177
:102C60007581868197810E9403160895E3E1F3E060
:102C700085E0808311828FEF828383831482758144
:102C800025E030E04FEF5FEF60E0868197810E94A2
:102C9000031608958091130380FF03C086958695DF
:102CA000089580E0089580911303817008959091B4
:102CB0001703933018F49F5F90931703882391F0C4
:102CC0002091130330911403409115035091160382
:102CD00060911703709118038091190390911A0362
:102CE0000E940316089581E00E945716089590915E
:102CF0001703992319F0915090931703882391F0AB
:102D00002091130330911403409115035091160341
:102D100060911703709118038091190390911A0321
:102D20000E940316089581E00E947716089580910D
:102D30001703089580931703662389F020911303E6
:102D400030911403409115035091160370911803AC
:102D5000682F8091190390911A030E940316089519
:102D600060E00E949A16089580911403089580915E
:102D70001503089580911603089560910C018091C8
:102D8000130380FF11C070E020910B0130E0C901F6
:102D9000880F991F820F931FE091DF01F091E001EE
:102DA000855E9C4F0995089580910D0190910E01CB
:102DB000282F30E0F901EE0FFF1FE20FF31FE55E51
:102DC000FC4F891700F71182108212828F5F3396B1
:102DD000F8CF9091130390FF11C090910D01509185
:102DE0000E01292F30E0F901EE0FFF1FE20FF31F54
:102DF000E55EFC4F951718F00E94BD16089581837B
:102E0000608342839F5F3396F5CFA3E0B0E0EBE0B1
:102E1000F7E10C944E339091130390FF0AC09E018A
:102E20002F5F3F4F0E94A9154B8169818A810E94C3
:102E3000E9162396E2E00C946A33CF93DF93EC011A
:102E4000EC81F0E0EF5AFD4F4491E3E1F3E0628161
:102E500081810E9405178C818F5F8C83DF91CF91D8
:102E60000895CF93DF93EC01E3E1F3E043816281C6
:102E70008C810E9405178C818F5F8C83DF91CF91AD
:102E80000895A3E0B0E0E7E4F7E10C944C338C0143
:102E90008091950281110AC09E012F5F3F4F4FEF35
:102EA0006FEF0E94A9158A8180939502F8016481D1
:102EB000613049F06230D1F08091950240E06623A4
:102EC00031F040E015C06091950240E080E00E9442
:102ED000E916F801848190E0019663E070E00E94B9
:102EE000CA3284832396E4E00C94683340919502BF
:102EF00080E060E0ECCFA3E0B0E0E1E8F7E10C9423
:102F00004633F82ED62EE42EB22E9091130390FF66
:102F10002FC0E92FE695E695AE2FB0E0AC54BE4F3A
:102F20008C918093D8029C7F943031F59E012F5F65
:102F30003F4F8F2D0E94A9154B8169818A810E9484
:102F4000E916F0921403D0921503E0921603BB2009
:102F500079F02091130360911703709118033F2DAE
:102F60004D2D5E2D8091190390911A030E94031636
:102F70002396EAE00C946233823019F4E090160351
:102F8000E0CF863019F4F0901403DBCF8930D9F309
:102F90008931B9F6E9518E2F8170A82EE695F0E0BF
:102FA000EF5AFC4FE491C12C0E2F10E060910F01FD
:102FB000C61618F00E94BD16C4CF2C2D30E0C09E5E
:102FC000C001C19E900D112470E00E94B6328F2D79
:102FD000A11013C0860F90910D01A901490F511D39
:102FE0009A01220F331F240F351F255E3C4F4E2DB3
:102FF0006D2D0E94A915C394D9CF861BECCF282F25
:10300000E3E1F3E0818143816281885F0E947B1765
:10301000089581E00E94FF170895282FE3E1F3E06F
:1030200081814381628188500E947B17089581E0ED
:103030000E940D180895282FE3E1F3E0628131E149
:10304000630F08F46FEF438181810E947B1708951D
:1030500081E00E941B180895282FE3E1F3E06281CC
:1030600031E1631B08F460E0438181810E947B179A
:10307000089581E00E942C180895282FE3E1F3E0E1
:10308000438131E1430F08F44FEF628181810E9457
:103090007B17089581E00E943D180895282FE3E1F1
:1030A000F3E0438131E1431B08F440E06281818118
:1030B0000E947B17089581E00E944E18089520E039
:1030C0000E947B170895EF92FF921F93CF93DF9397
:1030D000EC0110E0EE24EA94F12C60910F01161738
:1030E00070F00E94BD169A818C8190FF25C08F5F81
:1030F0008C83DF91CF911F91FF90EF900895809185
:103100000D01810F9927991F9C01220F331F280F52
:10311000391F255E3C4F70E0C7010E94CA32962FCE
:103120008C814091160360911503199F800D112425
:103130000E94A9151F5FD1CF8150DACFA0E0B0E087
:10314000E4EAF8E10C944733FC01828101E080FD60
:103150000FEF10E080910F01181798F00E94BD1634
:1031600080919702013009F051C0811102C0809115
:103170000F01815080939702CDB7DEB7E9E00C9440
:10318000633380910D01C12ED12C8C0D9D2D911D8D
:10319000EC01CC0FDD1FC80FD91FC55EDC4F1982B3
:1031A00018821A8234E0E32EF12CB12C8091970220
:1031B0008B0D8C302CF16BE00E94A832892F082EE9
:1031C000000C990BC816D90691F4809116038E9DB8
:1031D000A0018F9D500D1124559547955595479504
:1031E0009E0160911503809114030E94A915B00EF1
:1031F000F1E0EF1AF108E114F104C1F61F5FAACF64
:1032000087FFDDCF90910F01890FD9CF90E0019614
:1032100060910F0170E00E94CA32ACCF0F931F93F0
:10322000CF9380910D0190910E01282F30E0F9018C
:10323000EE0FFF1FE20FF31FE55EFC4F891730F121
:10324000C0E060910F01C61738F10E94BD162091B1
:10325000090180919602820F8093960290910A0153
:10326000920F90930A01191654F4082E000C990B32
:1032700040910F014150550B841795071CF0219583
:1032800020930901CF911F910F910895118210820F
:1032900012828F5F3396D2CF0C2F10E070E0C801FE
:1032A0000E94CA3290910D01980F892F90E02091D1
:1032B0009602022E000C330BFC01EE0FFF1FE80FED
:1032C000F91F02171307ACF020910A01022E000C1F
:1032D000330B201731076CF09F01255E3C4F409166
:1032E000160360911503809114030E94A915CF5F06
:1032F000A8CFE55EFC4F118210821282F8CFAEE0BB
:10330000B0E0E5E8F9E10C944A338D879E87AD85FE
:10331000BE8514961C91212F30E0D9010E941533EF
:103320009B01AC010E942B3369837A838B839C833E
:10333000E0E2F0E0E11BF109A5E5B0E09B01AC01A2
:103340000E942B3369877A878B879C879F01DF01D7
:103350000E940D339B01AC010E9436336D837E8346
:103360008F8398879B01AC0189819A81AB81BC8155
:10337000280F391F4A1F5B1F69857A858B859C85BD
:103380000E94DE32022F30E00A3248F5A901440FD4
:10339000551F420F531F55954795142F1095F12C2B
:1033A00085E5E82EE01A80910F01F81630F10E94B1
:1033B000BD16AD85BE8514969C9181E0992319F0C8
:1033C000903219F48FEF8093080180910801890FE2
:1033D000ED85FE8584832E96E6E00C94663385E5C4
:1033E00090E0821B930BAC01440F551F480F591FEF
:1033F00057FFD1CF4F5F5F4FCECF8E2DF1FC802F87
:1034000040910D014F0D5527551F9A01220F331F73
:10341000240F351F255E3C4F412F609115030E94FC
:10342000A915F394C0CF0F931F93CF93DF93EC01B3
:1034300000E010E040910F01842F90E00817190779
:103440006CF00E94BD168C8190E0019681709927E6
:103450008C83DF91CF911F910F91089580910D0181
:10346000800F912F911D9C01220F331F280F391FB0
:10347000255E3C4F9C816091150380911403469515
:1034800050E0041715074CF4992349F040911603B6
:103490000E94A9150F5F1F4FCDCF9923B9F340E0CC
:1034A000F7CFA0E0B0E0E7E5FAE10C944033FC018F
:1034B0006280448081E08483E1E5F2E07490E0ED95
:1034C000F2E0E491C0911603C695C158D0E0CC0F4C
:1034D000DD1FCD2FDD27812C75E0972EAA24AA941D
:1034E000B12C55245A94E719EE2EF12C80910F013E
:1034F000881638F00E94BD16CDB7DEB7E0E10C9417
:103500005C33C82CD12C82E0861568F09C9CF001BD
:103510009D9CF00D1124E856FD4F8091140380838B
:10352000809115038183411023C09C9CF0019D9CD8
:10353000F00D1124E856FD4F1382128280910D0187
:103540008C0D9D2D911D9C01220F331F280F391FBB
:10355000255E3C4F9C9CF0019D9CF00D1124E8568B
:10356000FD4F4281618180810E94A9158394BECF65
:103570009C9C80019D9C100D112408561D4FF80144
:1035800083818823F1F081508383589EC0011124E8
:10359000648170E00E94B632FB01FF27EF5AFD4FB5
:1035A0008491E82FE7195E9EC0011124B7010E94A3
:1035B000B63280911603689FB0011124F80172831E
:1035C000BDCF0E94F733B5010E94CA328C179D0708
:1035D0000CF0B4CFF2E0F61598F40E94F733B50181
:1035E0000E94CA32F80180830E94F73320911503AC
:1035F0002695622F70E00E94CA32280FF8012183BD
:103600009C9CF0019D9CF00D1124E856FD4F128208
:1036100080911603893C58F088EC9C9CF0019D9C9D
:10362000F00D1124E856FD4F8483838387CF8431C6
:10363000A0F784E1F2CFE3E1F3E020812E7F208345
:1036400031814281538164817581868197810E9495
:1036500003161092D9020E94BD160895E3E1F3E02B
:1036600080818E7F80831092D9020E94BD160895BA
:103670001092D9028091D60281110AC081E0809314
:10368000D6028091130381708093D5020E942E1B75
:103690000895609113036695669570E04BE050E0E5
:1036A00080E191E00E940734892B19F481E0809336
:1036B000D9020E94FB289093D0028093CF020895F4
:1036C0009091130390FF3AC08823C9F18B32C8F55B
:1036D0008F73282F220F220F809113038370282BC2
:1036E00020931303662381F0309114034091150356
:1036F000509116036091170370911803809119037C
:1037000090911A030E9403166091130366956695C3
:1037100070E04BE050E080E191E00E940734892B9B
:1037200091F01092D90281E08093D2024091160369
:1037300060911503809114030E945F18089581E041
:10374000C8CF8AE2C6CF0E94491BEDCF682F809177
:103750001303869586958F5F8B3208F081E00E9477
:10376000601B089581E00E94A61B0895682F909128
:103770001303969596958FEF890F913009F48AE29D
:103780000E94601B089581E00E94B61B089561E0CD
:103790000E94601B0895E3E1F3E0808181608083F3
:1037A000869586950E94C71B08958091130380FF1C
:1037B00003C00E941B1B08950E94CB1B089560E06C
:1037C0000E94601B08958091D702811137C00E942A
:1037D000C61520931303309314034093150350939D
:1037E0001603609317037093180380931903909343
:1037F0001A032430A0F40E9436160E94C6152093A6
:1038000013033093140340931503509316036093EE
:103810001703709318038093190390931A030E945F
:10382000B8151092D9028091130380FF04C08695C9
:1038300086950E94DF1B81E08093D7020895E3E123
:10384000F3E0808181608083869586950E94DF1BEE
:1038500008958091130380FF03C00E942E1B0895DA
:103860000E941F1C08951092D6028091D5028111EA
:103870000E941F1C0E94491B08950F931F93CF9312
:10388000DF938091D9028823C1F18091D802E09121
:103890001303E695E695E81BE093D102823091F59B
:1038A000F0E0E35BFD4FE491CE2FD0E00DE117E1B6
:1038B0008091D202882361F01092D2020E94FB28EC
:1038C0009093D0028093CF021092D4021092D30230
:1038D0000E94FB282091CF023091D002821B930BD3
:1038E0008F3F9F4750F42C0F3D1F3093D002209301
:1038F000CF028FEC92E0F8010995DF91CF911F91F3
:103900000F910895C8E2D0E00FE719E1883181F204
:10391000C0F48F3009F43AC048F4863021F1893080
:1039200059F1C0EDD7E005EA15E1C2CF8531C9F7FD
:10393000F0E0EF5BFD4FE491CE2FD0E00EE019E117
:10394000B7CFC4EFD1E003E11AE1843209F4B0CF7C
:10395000853231F1833229F7EFE3F2E0C591D4915A
:1039600001E417E1A5CFF0E0E65BFD4FE491CE2F37
:10397000D0E001E317E19CCFE695F0E0E95BFD4F75
:10398000E491CE2FD0E003E618E192CFE695F0E087
:10399000EC5BFD4FE491CE2FD0E00EE918E188CF2B
:1039A0008E2F63E00E949C32E92FF0E0E45CFD4F33
:1039B000E491CE2FD0E001E51AE17ACF08950E947C
:1039C0003D1C0895FA01882311F009950895FB0123
:1039D000FCCFCF93DF93C82FD62F0E944A168C17A7
:1039E00048F00E944A168D1728F40E94B21BDF91FE
:1039F000CF9108958C2F0E94C71BF9CF1F93CF93AF
:103A0000DF93EC01FB011581111168C00E94980C35
:103A10008272FE01E052F847E531F10508F05EC020
:103A2000E155FB4C0C9400330E94D51B812FDF9194
:103A3000CF911F91089543EC5BE162EB7BE10E9423
:103A4000E21CF4CF42EB5BE163EC7BE1F8CF47E1B2
:103A500058E169E078E1F3CF49E058E167E178E1C6
:103A6000EECF49E358E168E278E1E9CF48E258E176
:103A700069E378E1E4CF4BE558E16AE478E1DFCF30
:103A80004AE458E16BE578E1DACF43E956E163E7D0
:103A900076E1D5CF43E756E163E976E1D0CF81E027
:103AA0000E94C71BC3CF65E082E00E94E91CBECF25
:103AB00068E086E0FACF6EE089E0F7CF64E18FE05E
:103AC000F4CF67E185E1F1CF88E1EACF62E289E1F5
:103AD000ECCF83E2E5CF6AE285E2E7CF11E0A6CF43
:103AE0009C01AB01539A6BB1677F7BB17860EFB7F4
:103AF000F894CA01880F991F840F951F820F931F96
:103B00008217930741F4EFBF8FE594E00197F1F737
:103B100000C000000895D9014D919D0158E07BB986
:103B2000000000C047FF6BB9440F000000C000C098
:103B300000C06BB900C05A9591F7E2CF0E948F0D7B
:103B4000089580E00E947F11817008950E944812BC
:103B50002FEF86E791E0215080409040E1F700C0D0
:103B600000000E9448120E94A11D882321F00E949B
:103B70009E1D0E94572908950E94A61D089584E065
:103B8000089550E0440F551F94E1699F400D511D69
:103B9000112494E6899F400D511D1124CA01899674
:103BA00008950F931F93CF93DF938430C8F465304B
:103BB000B8F44A30A8F40E94C11D8C010E942A3436
:103BC000C82FD0E0DC2FCC27C80101960E942A34F0
:103BD0009E01282BC901DF91CF911F910F9108956C
:103BE00080E090E0F8CF0F931F93CF93DF93122FD5
:103BF000032F843078F4653068F44A3058F40E941A
:103C0000C11DEC01602F0E944E34612FCE01019640
:103C10000E944E34DF91CF911F910F9108951F9311
:103C2000CF93DF93D0E0C0E011C0412F6C2F8D2FD8
:103C30000E9486039C01412F6C2F8D2F0E94F31D43
:103C40001F5F1A3091F7CF5FC53011F010E0EDCF54
:103C5000DF5FD43041F7DF91CF911F910895EF924C
:103C6000FF920F931F93CF93DF938C01EA017A01A8
:103C7000E60EF71ECE15DF0529F4CDB7DEB7E6E078
:103C80000C946633003981E0180740F4C801899626
:103C90000E942A3489930F5F1F4FECCF80E0FACF48
:103CA000EF92FF920F931F93CF93DF938C01EA0162
:103CB0007A01E60EF71ECE15DF0529F4CDB7DEB783
:103CC000E6E00C946633003981E0180728F4688137
:103CD000C80189960E944E3421960F5F1F4FEBCF8B
:103CE000843038F4653028F44A3018F40E94D11D2D
:103CF000089580E090E0089580E1089587E492E0DF
:103D00000895EF92FF920F931F93CF93DF938C014F
:103D1000EA017A01E60EF71ECE15DF0529F4CDB7CC
:103D2000DEB7E6E00C946633073482E0180748F407
:103D3000C80187549E4F0E942A3489930F5F1F4FFA
:103D4000EBCF80E0FACFEF92FF920F931F93CF93C8
:103D5000DF938C01EA017A01E60EF71ECE15DF052E
:103D600029F4CDB7DEB7E6E00C946633073482E081
:103D7000180730F46881C80187549E4F0E944E3462
:103D800021960F5F1F4FEACFCF93DF93C9EBD1E0AE
:103D900060E0CE010E944E342196C11584E0D80720
:103DA000B9F7DF91CF910895A8E0B0E0EAEDFEE128
:103DB0000C944833F82E2FE0281708F46FC08FEFCB
:103DC00093E00E942A34811169C009EB11E0F110DF
:103DD00038C01A821982FE01339686E0DF011D92F7
:103DE0008A95E9F76801BFEFCB1ADB0AC8010E9488
:103DF0002A3489831A82882309F450C08130D1F48F
:103E0000780122E0E20EF11CC6010E942A348A8366
:103E1000882309F443C09FEF980F9330F8F46801AA
:103E200083E0C80ED11CC7010E942A348B838823EB
:103E3000A9F11C8260E0CE0101960E94AE238601AA
:103E4000D1CF011584E0180749F1C8010E942A3436
:103E50000F5F1F4F8111F5CFFA94B9CF8430B9F4B9
:103E600002E010E0C701AFEFEA1AFA0A0E942A3412
:103E7000E1E0F0E0EC0FFD1FE00FF11F80838823ED
:103E800069F08C3731F4FE01E00FF11F12826701F7
:103E9000D1CF0F5F1F4F0730110521F72896E8E0BB
:103EA0000C946433CF93DF93EB0186319C4719F573
:103EB0000E94980C9D819923A1F08A7A91E081114A
:103EC00001C090E09093DA02882349F085E30E94D4
:103ED00011280E942B0D80E0DF91CF91089589E297
:103EE000F6CF8091DA02882321F085E30E94192819
:103EF000F0CF89E2FBCF81E0EFCFCF93DF93EC01EE
:103F0000FB018581882309F4D2C09E0130572332FA
:103F1000310508F0B2C00E94AC0D9093FE02809370
:103F2000FD02FE01E150F047E232F10520F4EC53CE
:103F3000FB4C0C9400338091FD0281608093FD0264
:103F400093C08091FE0288608093FE028DC08091B4
:103F5000FD028260F3CF8091FD028460EFCF8091FB
:103F6000FD028860EBCF8091FE028160EDCF8091F1
:103F7000FE028260E9CF8091FD028061DFCF8091F7
:103F8000FD028062DBCF8091FD028064D7CF0E946A
:103F90002D088091FD028068D1CF8091FD028C6058
:103FA000CDCF8091FE028360CFCF8091FD028E7FC6
:103FB000C5CF8091FE02877FC7CF8091FD028D7FA4
:103FC000BDCF8091FD028B7FB9CF8091FD02877FAD
:103FD000B5CF8091FE028E7FB7CF8091FE028D7F9C
:103FE000B3CF8091FD028F7EA9CF8091FD028F7D9E
:103FF000A5CF8091FD028F7BA1CF0E942D088091DB
:10400000FD028F779BCF8091FD02837F97CF8091B8
:10401000FE028C7F99CF8091FD0282FB992790F957
:1040200021E0922790FB82F990FB83F987CF809162
:10403000FE02982F909591708E7F892B90FB81F9CD
:1040400083CF9091FD02892F8F7B96FF806476CF7E
:104050000E942D089091FD02892F97FB87F98058C7
:104060006DCF81E00E943C0E8091FD029091FE0296
:104070000E94B10D0E942D0880E0DF91CF9108953C
:1040800080E0F0CF9091FD02892F8F7E94FF8061B8
:1040900055CF9091FD02892F8E7F90FF81604ECF8A
:1040A0009091FE02892F877F93FF88604DCF81E03A
:1040B000E4CF282F35EB2303C001112497FF04C060
:1040C00080589109892F089580589F4FFBCF809188
:1040D000E10280FF0DC06091200170E0660F771F44
:1040E00060387105C0F561157105B9F1862F089525
:1040F00081FF07C06091200184E0689FB001112416
:10410000EFCF82FF04C06091200188E0F6CF80915C
:10411000E0028823E9F090911F016091200170E096
:10412000891730F093E0660F771F9A95E1F7D8CFA3
:10413000869F9001879F300D112483E0220F331F4B
:104140008A95E1F7692F70E0C9010E94CA32C8CF91
:1041500068E070E0CBCF8FE7089581E0089580910B
:10416000E10280FF0CC060911C0170E075956795BD
:10417000759567956115710561F1862F089581FF29
:1041800006C060911C0170E075956795F3CF609152
:104190001C0170E082FD15C02091DF022223B1F0E6
:1041A00090911B0160911C0170E0291750F4269F2B
:1041B000A001279F500D1124692F70E0CA010E94B1
:1041C000CA3260387105B0F28FE7089561E070E09F
:1041D000D4CF81E008959091E4022091E502922BE2
:1041E0002091E702922B2091E602922B992331F045
:1041F00098E09093E00291E09093DF028D3C31F4DF
:104200000E94672081958093E5020895E2E3E80F1C
:10421000E231B0F5F0E0EA51FB4C0C9400330E941F
:104220006720F1CF0E94672081958093E402089572
:104230000E946720FACF0E94AF208093E602089583
:104240000E94AF208195F9CF0E94AF208195809385
:10425000E70208950E94AF20FACF815D990B21E01B
:1042600030E001C0220F8A95EAF78091E302822BA9
:104270008093E30208958091E10281608093E102DE
:1042800008958091E1028260F9CF8091E10284601B
:10429000F5CF4091E4028D3C59F48091E50287FF0F
:1042A0000DC01092E502442359F41092E00208C0B8
:1042B0008E3C81F48091E50218169CF3442381F032
:1042C0008091E6029091E702892B811159C01092EA
:1042D000DF0208958F3C41F447FFF0CF1092E402D3
:1042E0008091E5028823E0CF803D19F41416B4F3E1
:1042F000E5CF9091E602893D29F41916FCF610925B
:10430000E602DCCF8A3D19F497FFD8CFF8CF909121
:10431000E7028B3D29F497FFD1CF1092E702CECF71
:104320008C3D19F41916CCF3C9CF9FE2980F983041
:1043300090F4815D990B21E030E0B90102C0660F75
:10434000771F8A95E2F7CB0180959091E30289234C
:104350008093E302B3CF8D3D31F48091E1028E7FF3
:104360008093E102ABCF8E3D21F48091E1028D7FFD
:10437000F7CF8F3D09F0A2CF8091E1028B7FF0CF84
:1043800008950E94FB282091E4023091E502232B3E
:10439000222321F08093DD029093DE022091E60239
:1043A0003091E702232B222321F08093DB029093AC
:1043B000DC0282EE92E00E946527089586E0E2EE3C
:1043C000F2E0DF011D928A95E9F71092E002109267
:1043D000DF021092E1020895A6E0B0E0E2EFF1E220
:1043E0000C944E3386E0E2EEF2E0DE01119601908D
:1043F0000D928A95E1F729813A814B815C816D812B
:104400007E8180E090E02696E2E00C946A33FC0125
:10441000828181110DC0838181110AC08481811143
:1044200007C081E09581911101C080E081700895FD
:1044300081E0FCCFA6E0B0E0E0E2F2E20C944B3386
:1044400086E0E2EEF2E09E012F5F3F4FD90101903E
:104450000D928A95E1F71092E4021092E502109213
:10446000E6021092E7028B819C81892B89018823C7
:1044700091F08091DD029091DE020E9424299C013E
:104480008091E0028823C9F14091210150E0421758
:10449000530708F43FC08D819E81892B882399F0B2
:1044A0008091DB029091DC020E9424299C01809182
:1044B000DF02882309F467C040911D0150E04217D4
:1044C000530708F46EC0B80182EE92E00E942C28D7
:1044D000811105C082EE92E00E94072281110E94A4
:1044E000C12186E0F801A2EEB2E001900D928A951A
:1044F000E1F72696E5E00C946733409122019AE0BB
:10450000499FA00111244217530728F68F5F80931B
:10451000E00202C08F3FD1F7FB80FF2059F00E94DC
:10452000672091E01F140CF09FEF899F802D1124CC
:104530008093E402FC80FF2059F00E94672091E004
:104540001F140CF09FEF899F802D11248093E502AA
:104550008091E402882309F49ECFF090E502FF20C9
:1045600009F499CF0E945920811101C081E0809304
:10457000E4028F2D0E945920882319F08093E502D0
:104580008ACF81E0FBCF40911E019AE0499FA001B4
:1045900011244217530708F096CF8F5F8093DF02F4
:1045A00002C08F3FD1F7FD80FF2059F00E94AF205D
:1045B00091E01F140CF09FEF899F802D11248093B0
:1045C000E602FE80FF2059F00E94AF2091E01F1408
:1045D0000CF09FEF899F802D11248093E70280913A
:1045E000E602882309F46FCFF090E702FF2009F478
:1045F0006ACF0E945920811101C081E08093E602B8
:104600008F2D0E945920882319F08093E7025BCFF9
:1046100081E0FBCFA0E0B0E0E0E1F3E20C944733AF
:10462000E82FF0E0EA5AFB4FB490282F2695269504
:10463000269530E0F901EA50FB4F0491877010E0B5
:10464000082E02C0159507950A94E2F7017011270C
:10465000F901EA51FB4FE490F12C082E02C0F594C9
:10466000E7940A94E2F791E0E922FF24F901EA5283
:10467000FB4FC491D0E002C0D595C7958A95E2F76B
:10468000C170DD27C62ED12C0115110549F5E114A5
:10469000F10431F086EE0E943B05C601009771F5EA
:1046A000B6018B2D0E94B605C601009779F5E1147D
:1046B000F104A1F50115110531F081EE0E94830589
:1046C000C6010097C9F5CD2B31F08CE20E94CE05D2
:1046D000C114D104C9F5CDB7DEB7E9E00C9463335A
:1046E00081EE0E943B05C601009789F2EFE9FFE0E9
:1046F0003197F1F700C000000197F6CFEFE9FFE036
:104700003197F1F700C000000197C8CFEFE9FFE053
:104710003197F1F700C000000197C7CF86EE0E94E5
:104720008305C601009731F2EFE9FFE03197F1F719
:1047300000C000000197F6CFEFE9FFE03197F1F7F5
:1047400000C000000197BDCF8FE99FE00197F1F70E
:1047500000C0000091E0C91AD108BACFEF92FF92D1
:104760001F93CF93DF93EC01162F8881882309F4E0
:104770005AC0813009F053C08981813071F47E01C3
:1047800082E0E80EF11C8A810E94CE05E701812FAC
:1047900090E00097E1F52196E8CF823041F47E0168
:1047A000E2E0EE0EF11C8A810E943B05EFCF8330E0
:1047B00041F47E01F2E0EF0EF11C8A810E94830534
:1047C000E5CF843011F02196E2CF2A81229680E055
:1047D00090E06AE0AE014F5F5F4F2053330B2A3009
:1047E000310550F0009799F2EFE9FFE03197F1F7CA
:1047F00000C000000197F6CF689FF001699FF00D9F
:104800001124C9018E0F9F1F2981EA01E3CFEFE92F
:10481000FFE03197F1F700C000000197BACF612F98
:104820000E940A23B8CFDF91CF911F91FF90EF90A4
:1048300008950F931F93CF93DF93C42FD22FFC01C2
:1048400085818823C9F04093EA020E94FB28909357
:10485000E9028093E80280E28C0F883040F4C77050
:1048600081E001C0880FCA95EAF70E94D705DF9161
:10487000CF911F910F9108951091EA0214133CC03B
:104880008091E8029091E9020E942429883C9105D8
:1048900098F5C0E2CD0F1D1741F180E2810F8830FD
:1048A00040F4177081E001C0880F1A95EAF70E9462
:1048B000DE05C83020F0802F0E94CE05D8CF91E0D1
:1048C0008D2F877001C0990F8A95EAF7892F0E9472
:1048D000D705802F0E94CE05D77081E001C0880FD8
:1048E000DA95EAF70E94DE05C2CF802F0E94CE053E
:1048F000C83008F0BCCFF0CF80E28C0F883008F0D1
:10490000B6CFC77081E001C0880FCA95EAF7EACF39
:104910000F93FC01CB01E851FC47E730F10590F51E
:10492000E850FB4C0C94003306E221EE41EE6AE1C4
:104930007CE70E94192480E00F91089507E225EE9C
:1049400045EE6BE17CE7F5CF06E221EE40EE68E153
:104950007CE7EFCF07E225EE44EE69E17CE7E9CFA3
:1049600006E221EE42EE6CE17CE7E3CF07E225EEC2
:1049700046EE6DE17CE7DDCF08E221E045EE6EE139
:104980007CE7D7CFFB01858181111092EA0281E09B
:10499000D3CFCF93DF939C01FB0127378CE73807F8
:1049A00039F028373C47F1F081E0DF91CF9108954D
:1049B0008581882391F00E94FB240E94A7080E9411
:1049C0000125D82F0E94FE24C82F0E94FB244D2FC2
:1049D0006C2F0E94D90980E0E8CF0E94FB240E943E
:1049E000B308EDCF8581882319F00E94FE24E5CF1E
:1049F0000E94FE24F4CF8091250108958091240126
:104A0000089580912301089585E290E00E942A3460
:104A1000843289F486E290E00E942A34853059F489
:104A200087E290E00E942A3491E0873109F090E01B
:104A3000892F8170089580E0FCCF882381F064E2A3
:104A400085E290E00E944E3465E086E290E00E94AC
:104A50004E3467E187E290E00E944E3408956FEF94
:104A600085E290E00E944E346FEF86E290E00E9473
:104A70004E346FEFEFCF0895A4E0B0E0E2E4F5E24A
:104A80000C944E3388E290E00E942A34282F30E0C4
:104A900040E050E0CA01B9012496E2E00C946A3388
:104AA0000895CF93C62F0E9450256C2F88E290E086
:104AB0000E944E34CF91089580E00E941D2560E051
:104AC00070E0CB010E9451250E940F1E0E94C41E5F
:104AD00081E00E941D2508950E943B250E943C25EF
:104AE0000E9450250E940425811102C00E945C256D
:104AF00008950E94291C08959C01FB01858188234B
:104B000051F0A90157574038510530F4822F0E94C7
:104B1000D41E80E0089581E008952FEFFC012083EA
:104B2000089580E00895CF93DF93EC01888183306E
:104B3000F1F038F4813071F0823081F0DF91CF9163
:104B400008958430D9F70E94B41689830E94B7165D
:104B50008A83F4CF0E94BA168983F0CF0E9453163D
:104B6000882319F00E944A16F7CF80E0F5CF0E9403
:104B70009716F2CFCF93DF93EC018881833039F120
:104B800038F4813069F08230B1F0DF91CF9108952F
:104B90008430D9F70E94BA16482F6A81898108C0EB
:104BA000D9810E94B716C82F0E94B4164D2F6C2FC2
:104BB0000E945F18EACF8981811103C00E942E1BD9
:104BC000E4CF0E941F1C89810E94DF1BDECF8981F8
:104BD0000E94B016DACFFC019C012E5F3F4F9081FE
:104BE000983041F0993051F0973059F4C9010E9442
:104BF000BA250895C9010E94932508950E94291697
:104C000008958FEF80830895FC012181223019F4EB
:104C10000E94EB2508950E948D250895CF92DF9282
:104C2000FF920F931F93CF93DF93CDB7DEB72E97ED
:104C30000FB6F894DEBF0FBECDBF8D839E83F62ED8
:104C40008D819E810E949125811115C0AD81BE810B
:104C5000EC91E150E33140F5F0E0E150FB4C0C9475
:104C60000033ED81FE8111828CE082836F2D8D8176
:104C70009E810E94D12B2E960FB6F894DEBF0FBEF8
:104C8000CDBFDF91CF911F910F91FF90DF90CF901B
:104C90000895AD81BE8111968C91833099F148F4CD
:104CA000813081F08230E9F08FEFAD81BE818C934D
:104CB000DDCF8430C9F7ED81FE8112821382148228
:104CC0001582D4CF0E9407290E9406336F8378870C
:104CD00089879A87ED81FE816283738384839583BC
:104CE000C5CF0E943C250E9406336B877C878D8749
:104CF0009E87AD81BE8112966D937D938D939C931B
:104D00001597B4CFED81FE81028110E06F01B2E012
:104D1000CB0ED11C053011050CF0A8CF802F0E94BE
:104D20007F11D60111969C93119712968C930F5F69
:104D30001F4FEDCFED81FE818181823049F08530BA
:104D400009F0B2CFED81FE8182810E9479258ECF5C
:104D5000AD81BE8112968D919D910D90BC91A02D3B
:104D600089839A83AB83BC83BC01CD010E94063347
:104D70000E9451257BCFAD81BE8113964C91139734
:104D800012966C91129711968C910E94D11D9827C2
:104D900089279827ED81FE819583848367CFAD8134
:104DA000BE8114962D913C911597322723273227E7
:104DB00013964C91139712966C91129711968C91B1
:104DC0000E94F31D53CF0E940F1E50CF6F2D8D8177
:104DD0009E810E9404264ACF0E947C1EED81FE81A6
:104DE000818344CF0E947E1E982789279827AD8112
:104DF000BE8112969C938E93119738CFED81FE81E0
:104E0000638170E081819281AF014C5F5F4F982791
:104E1000892798270E94811E29CFAD81BE811396D4
:104E20006C91139770E011968D919C911297AD0142
:104E30004C5F5F4F9827892798270E94A31E16CFA3
:104E40000E94C41E13CF0E94BF1DC8CFAD81BE817A
:104E500013966C91139770E011968D919C91129717
:104E6000AD014C5F5F4F9827892798270E942F1E1E
:104E7000FDCEED81FE81638170E081819281AF0181
:104E80004C5F5F4F9827892798270E94501EEECECF
:104E90009093F0028093EF020895E091EF02F09179
:104EA000F002309729F00190F081E02D09950895E6
:104EB00080E00895E091EF02F091F002309721F048
:104EC0000280F381E02D09950895DC01E091EF0265
:104ED000F091F002309739F082E08C930680F781F0
:104EE000E02DCD0109950895A3E0B0E0EAE7F7E2EF
:104EF0000C944E339C018091ED029091EE0282174A
:104F00009307A1F03093EE022093ED02E091EF02BF
:104F1000F091F002309751F083E089833B832A833C
:104F20000084F185E02DCE01019609952396E2E0FB
:104F30000C946A33A3E0B0E0E0EAF7E20C944E335D
:104F40009C018091EB029091EC0282179307A1F0F3
:104F50003093EC022093EB02E091EF02F091F0022B
:104F6000309751F084E089833B832A830084F18564
:104F7000E02DCE01019609952396E2E00C946A3368
:104F800040910401509105019A012E5F3F4F485F07
:104F90005F4F80E0F90190812F5F3F4F91118F5F4C
:104FA00042175307B9F70895882371F0209104013F
:104FB00030910501F9013296285F3F4F9191981782
:104FC00029F0E217F307D1F780E0089581E0089512
:104FD0009C01FC0132968FEF90E04191461751F011
:104FE0008F3F19F4411101C0892F9F5F9630A9F7B7
:104FF0008F3F09F40895280F311D87FD3A95F90177
:10500000628308959C01FC013296285F3F4F819195
:10501000861303C0DF0111971C92E217F307B9F75B
:105020000895682F80910401909105010E94E8275E
:105030000895682F80910401909105010E94022833
:105040000895E0910401F0910501329686E0DF01B8
:105050001D928A95E9F70895DC01FB0111969C9158
:1050600011978181981322C012968C9112978823F0
:1050700019F0928189131AC013968C911397882383
:1050800019F09381891312C015968C911597882376
:1050900019F0958189130AC014969C91992321F0E7
:1050A00081E02481291303C080E001C081E0817088
:1050B000089508950E94592808958F5F8093F10202
:1050C0000E945A28089583E08093F1020E945A2892
:1050D00008950E945D28089581E08093F1020E9466
:1050E0005A2808950E946C280895089508950E94F2
:1050F00076280895089508950E9475280895CF93FD
:105100000E947A280E9448120E947B28C0E08C2FBF
:105110000E947F11892B31F4CF5FC530C1F780E049
:10512000CF91089581E0FCCF85B7806885BF85B7B2
:10513000806885BF08951F921FB61F9211248F9318
:105140009F93AF93BF938091F202811113C080911E
:105150003C0390913D03A0913E03B0913F034196E3
:10516000A11DB11D80933C0390933D03A0933E038A
:10517000B0933F03BF91AF919F918F911F901FBE3E
:105180001F90189580914403843031F10E94970458
:105190001092F20288E190E020E40FB6F894A8950E
:1051A000809360000FBE2093600083B7817F84608E
:1051B00083BF83B7816083BF7894889583B78E7FE0
:1051C00083BF0FB6F894A8958091600088618093A2
:1051D0006000109260000FBE08950E942D080E948A
:1051E000A004089582E084BD93E095BD9AEF97BD39
:1051F00080936E0008952FB7F89480913C039091AE
:105200003D03A0913E03B0913F032FBF0895A4E05A
:10521000B0E0EDE0F9E20C944E338FB7F8942091B2
:105220003C0330913D0340913E0350913F0329835D
:105230003A834B835C838FBF69817A818B819C81A8
:105240002496E2E00C946A339C014FB7F894809165
:105250003C0390913D03A0913E03B0913F034FBFAB
:10526000821B930B089578941F921FB61F921124EE
:105270008F939F93AF93BF9380913C0390913D0395
:10528000A0913E03B0913F030196A11DB11D8093F3
:105290003C0390933D03A0933E03B0933F03BF9123
:1052A000AF919F918F911F901FBE1F90189587E718
:1052B00097E7909301088093000888E19AE00FB681
:1052C000F894A895809360000FBE90936000FFCF84
:1052D00088E19AE00FB6F894A895809360000FBE1D
:1052E00090936000FFCFFF920F931F93CF93DF93B4
:1052F000182FEB011092BC0084EA8093BC000E943E
:10530000FB28082FF92E8091BC0087FF28C08091D0
:10531000B900887F883029F08091B900887F80317A
:10532000A1F51093BB0084E88093BC000E94FB2889
:10533000182F092F8091BC0087FF1FC02091B90052
:10534000287F80E090E0283199F081E090E02034DF
:1053500011F480E090E091958195910909C0802F2A
:105360009F2D0E942429C817D90768F68EEF9FEF5A
:10537000CDB7DEB7E5E00C946733812F902F0E9404
:105380002429C817D907B0F6F1CF8FEF9FEFF0CFE0
:105390001092B9008CE08093B80008950F931F938A
:1053A000CF93DF93EB018093BB0084E88093BC0034
:1053B0000E94FB28182F092F8091BC0087FF11C085
:1053C0002091B900287F81E090E0283211F480E03C
:1053D00090E0919581959109DF91CF911F910F9167
:1053E0000895CF3FDC0741F3812F902F0E9424299D
:1053F000C817D90708F78EEF9FEFEECF0F931F93D3
:10540000CF93DF93EC0184EC8093BC000E94FB28D7
:10541000182F092F8091BC0087FF08C08091BB0026
:1054200090E0DF91CF911F910F910895CF3FDC075E
:1054300089F3812F902F0E942429C817D90750F78C
:105440008EEF9FEFEECF0F931F93CF93DF93EC017F
:1054500084E88093BC000E94FB28182F092F8091BC
:10546000BC0087FF08C08091BB0090E0DF91CF9126
:105470001F910F910895CF3FDC0789F3812F902F63
:105480000E942429C817D90750F78EEF9FEFEECF5F
:10549000A0E0B0E0EEE4FAE20C944333782E5B0136
:1054A0006A0189010E94FB284C010431110560F159
:1054B0000F3F100769F1C80164E170E00E94B63245
:1054C000F62EE72E6F2D7E2D872D0E947329EC017D
:1054D00097FF09C00F3F1007A9F3C4010E942429B8
:1054E0000817190778F77501CA0CDB1CEC14FD04CA
:1054F00011F0D7FF10C084E98093BC00CE01CDB776
:10550000DEB7EDE00C945F33FF24F394E12CDACFA7
:1055100085E0F82EFBCFB801F70181917F010E9451
:10552000CE29EC01E3CFA0E0B0E0E9E9FAE20C9487
:105530004233682E962E5A01690178010E94FB2899
:10554000782E892E0431110530F10F3F100731F10B
:10555000C80164E170E00E94B632162F072F612F58
:10556000702F862D0E947329EC0197FF19C0FFEF61
:10557000EF16FF06A1F3872D982D0E942429E81627
:10558000F90668F784E98093BC00CE01CDB7DEB799
:10559000EEE00C945E3311E000E0E1CF15E0FCCFCB
:1055A000B701892D0E94CE29EC018501CA0CDB1CB4
:1055B0000C151D0539F3D7FDE5CFB701F801819131
:1055C0008F010E94CE29EC01F3CFA0E0B0E0EBEE1A
:1055D000FAE20C944233982E862E5A016901780122
:1055E0000E94FB283C010431110550F10F3F1007C8
:1055F00051F1C80164E170E00E94B632162F072F06
:10560000612F702F892D0E947329EC0197FF1DC017
:10561000FFEFEF16FF06A1F3C3010E942429E8164D
:10562000F90670F784E98093BC00CE011C161D06B4
:1056300014F480E090E0CDB7DEB7EEE00C945E337A
:1056400011E000E0DDCF15E0FCCFB701882D0E940E
:10565000CE29EC0197FDE6CF689490F80E94FB28D4
:10566000782E892E84E1E816F10490F1EFEFEE1622
:10567000FE0689F1C70164E170E00E94B632162F80
:10568000072F612F702F892D0E947329EC0197FF3E
:105690000BC0FFEFEF16FF06A1F3872D982D0E9498
:1056A0002429E816F90668F781E0C81AD1088601AE
:1056B000C114D10491F4D7FDB5CFC7010E94232AAC
:1056C000EC0197FDAFCFAC0CBD1CF5018083AACFD8
:1056D00011E000E0D6CF15E0FCCFD7FDA3CF812CA1
:1056E000912C3801C7010E94FE29EC0197FD9ACF49
:1056F000F501E80DF91D8083EFEF8E1A9E0A630114
:105700008016910678F3D7CF8091FB020895089513
:10571000282FCB01BA01309144033430E1F42F70CB
:105720002093E9002FEF3091E80035FD07C035EDFB
:105730003A95F1F7000021502111F5CF2091E800B2
:1057400025FF09C040E050E00E94CB2D8091E80089
:105750008E778093E8000895BC0143E050E084E038
:105760000E94882B0895BC0146E050E084E00E942E
:10577000882B0895CF93DF93D82FC92F48E050E0AE
:10578000682F792F81E00E94882B88E0ED2FFC2F75
:10579000A3EFB2E001900D928A95E1F7DF91CF91EE
:1057A0000895792F603231F440E250E0682F82E0B2
:1057B0000E94882B089580914303811109C00E94A3
:1057C000A22F0E94FF2F8091E20084608093E2006C
:1057D00008951092430308950E946C2808956091E3
:1057E000400381E0611101C080E00E9463280895B8
:1057F0009091440381E0943009F080E0609140038F
:105800000E946928089542E061EC81E00E941E2F09
:1058100042E261EC84E00E941E2F42E261EC82E0F1
:105820000E941E2F42E260EC83E00E941E2F9091A6
:10583000440381E0943009F080E0609140030E94CD
:105840005D28089580914603893089F148F48230BB
:1058500009F4A1C0833009F45BC0813041F00895A0
:105860008A3009F488C08B3009F46DC008958091A6
:105870004503813A09F04BC08091E800877F80930F
:10588000E8008091490390914A03892B61F060E020
:1058900080E090E070E00E94692E8091E8008B77B4
:1058A0008093E800089568E083EF92E0F3CF809161
:1058B0004503813261F58091490390914A038D7FC0
:1058C000892B29F58091E800877F8093E8008091FB
:1058D000E80082FF18C09091F3008091F2000297D7
:1058E00031F48091F100813011F0863021F4809103
:1058F000F1008093FB028091E8008B778093E800B1
:105900000E94522F04C0809144038111E0CF08957A
:1059100080914503813AD9F78091490390914A03D8
:10592000892BA9F78091E800877F8093E800809118
:10593000E80080FFFCCF809130018093F1008091DE
:10594000E8008E77DBCF80914503813201F78091AB
:10595000490390914A03892BD1F68091E800877F13
:105960008093E8000E94522F80914703809330017A
:105970000E942D08089580914503813241F680915F
:10598000E800877F8093E8000E94522F80914803AF
:105990008093FC02089580914503813A09F0B7CFC6
:1059A0008091E800877F8093E8008091E80080FF85
:1059B000FCCF8091FC02C1CF84B7877F84BF0FB634
:1059C000F894A8958091600088618093600010929F
:1059D00060000FBE80E890E00FB6F89480936100FD
:1059E000909361000FBE0E94722808950E94A22F1A
:1059F0000E94FF2FE2EEF0E0808184608083789443
:105A00000E948232089586E291E00E94482708951C
:105A100080914403853031F480914403853019F03E
:105A20000E94ED2808950E94C22880914203882395
:105A300099F30E947F28882379F30E94B52D0E9454
:105A40002D08EACFA0E2B0E0E8E2FDE20C944E338C
:105A500080914403843081F483E08093E900809155
:105A6000E80082FF09C08091E80085FD09C08091AF
:105A7000E8008B778093E800A096E2E00C946A330C
:105A800040E050E060E270E0CE0101960E941A2EE4
:105A90008091E8008B778093E80060E2CE01019668
:105AA0000E940E26E9CF9A0140914B0350914C037E
:105AB0000E945B2D0895AC01CB01D901252F33271E
:105AC0002330310521F168F42130310509F443C058
:105AD0002230310509F444C080E090E020E030E05D
